{
  "contractName": "Marketplace",
  "abi": [
    {
      "inputs": [],
      "payable": false,
      "stateMutability": "nonpayable",
      "type": "constructor"
    },
    {
      "anonymous": false,
      "inputs": [
        {
          "indexed": false,
          "internalType": "uint256",
          "name": "id",
          "type": "uint256"
        },
        {
          "indexed": false,
          "internalType": "string",
          "name": "name",
          "type": "string"
        },
        {
          "indexed": false,
          "internalType": "string",
          "name": "description",
          "type": "string"
        },
        {
          "indexed": false,
          "internalType": "uint256",
          "name": "rentalDeposit",
          "type": "uint256"
        },
        {
          "indexed": false,
          "internalType": "uint256",
          "name": "rentalFee",
          "type": "uint256"
        },
        {
          "indexed": false,
          "internalType": "address payable",
          "name": "owner",
          "type": "address"
        },
        {
          "indexed": false,
          "internalType": "bool",
          "name": "rented",
          "type": "bool"
        }
      ],
      "name": "ProductCreated",
      "type": "event"
    },
    {
      "anonymous": false,
      "inputs": [
        {
          "indexed": false,
          "internalType": "uint256",
          "name": "id",
          "type": "uint256"
        },
        {
          "indexed": false,
          "internalType": "string",
          "name": "name",
          "type": "string"
        },
        {
          "indexed": false,
          "internalType": "address",
          "name": "owner",
          "type": "address"
        },
        {
          "indexed": false,
          "internalType": "address",
          "name": "custodian",
          "type": "address"
        },
        {
          "indexed": false,
          "internalType": "bool",
          "name": "rented",
          "type": "bool"
        }
      ],
      "name": "ProductDeleted",
      "type": "event"
    },
    {
      "anonymous": false,
      "inputs": [
        {
          "indexed": false,
          "internalType": "uint256",
          "name": "id",
          "type": "uint256"
        },
        {
          "indexed": false,
          "internalType": "string",
          "name": "name",
          "type": "string"
        },
        {
          "indexed": false,
          "internalType": "string",
          "name": "description",
          "type": "string"
        },
        {
          "indexed": false,
          "internalType": "uint256",
          "name": "rentalDeposit",
          "type": "uint256"
        },
        {
          "indexed": false,
          "internalType": "uint256",
          "name": "rentalFee",
          "type": "uint256"
        },
        {
          "indexed": false,
          "internalType": "address payable",
          "name": "owner",
          "type": "address"
        },
        {
          "indexed": false,
          "internalType": "bool",
          "name": "rented",
          "type": "bool"
        }
      ],
      "name": "ProductEdited",
      "type": "event"
    },
    {
      "anonymous": false,
      "inputs": [
        {
          "indexed": false,
          "internalType": "uint256",
          "name": "id",
          "type": "uint256"
        },
        {
          "indexed": false,
          "internalType": "string",
          "name": "name",
          "type": "string"
        },
        {
          "indexed": false,
          "internalType": "uint256",
          "name": "rentalDeposit",
          "type": "uint256"
        },
        {
          "indexed": false,
          "internalType": "uint256",
          "name": "rentalFee",
          "type": "uint256"
        },
        {
          "indexed": false,
          "internalType": "address",
          "name": "owner",
          "type": "address"
        },
        {
          "indexed": false,
          "internalType": "address",
          "name": "custodian",
          "type": "address"
        },
        {
          "indexed": false,
          "internalType": "uint256",
          "name": "rentalStart",
          "type": "uint256"
        },
        {
          "indexed": false,
          "internalType": "bool",
          "name": "rented",
          "type": "bool"
        }
      ],
      "name": "ProductRented",
      "type": "event"
    },
    {
      "anonymous": false,
      "inputs": [
        {
          "indexed": false,
          "internalType": "uint256",
          "name": "id",
          "type": "uint256"
        },
        {
          "indexed": false,
          "internalType": "string",
          "name": "name",
          "type": "string"
        },
        {
          "indexed": false,
          "internalType": "uint256",
          "name": "rentalDeposit",
          "type": "uint256"
        },
        {
          "indexed": false,
          "internalType": "uint256",
          "name": "rentalCost",
          "type": "uint256"
        },
        {
          "indexed": false,
          "internalType": "address payable",
          "name": "owner",
          "type": "address"
        },
        {
          "indexed": false,
          "internalType": "address payable",
          "name": "borrower",
          "type": "address"
        },
        {
          "indexed": false,
          "internalType": "address",
          "name": "custodian",
          "type": "address"
        },
        {
          "indexed": false,
          "internalType": "uint256",
          "name": "rentalDays",
          "type": "uint256"
        },
        {
          "indexed": false,
          "internalType": "bool",
          "name": "rented",
          "type": "bool"
        }
      ],
      "name": "ProductReturned",
      "type": "event"
    },
    {
      "constant": true,
      "inputs": [],
      "name": "name",
      "outputs": [
        {
          "internalType": "string",
          "name": "",
          "type": "string"
        }
      ],
      "payable": false,
      "stateMutability": "view",
      "type": "function"
    },
    {
      "constant": true,
      "inputs": [],
      "name": "productCount",
      "outputs": [
        {
          "internalType": "uint256",
          "name": "",
          "type": "uint256"
        }
      ],
      "payable": false,
      "stateMutability": "view",
      "type": "function"
    },
    {
      "constant": true,
      "inputs": [
        {
          "internalType": "uint256",
          "name": "",
          "type": "uint256"
        }
      ],
      "name": "products",
      "outputs": [
        {
          "internalType": "uint256",
          "name": "id",
          "type": "uint256"
        },
        {
          "internalType": "string",
          "name": "name",
          "type": "string"
        },
        {
          "internalType": "string",
          "name": "description",
          "type": "string"
        },
        {
          "internalType": "uint256",
          "name": "rentalDeposit",
          "type": "uint256"
        },
        {
          "internalType": "uint256",
          "name": "rentalFee",
          "type": "uint256"
        },
        {
          "internalType": "address payable",
          "name": "owner",
          "type": "address"
        },
        {
          "internalType": "address payable",
          "name": "custodian",
          "type": "address"
        },
        {
          "internalType": "uint256",
          "name": "rentalStart",
          "type": "uint256"
        },
        {
          "internalType": "bool",
          "name": "rented",
          "type": "bool"
        }
      ],
      "payable": false,
      "stateMutability": "view",
      "type": "function"
    },
    {
      "constant": false,
      "inputs": [
        {
          "internalType": "string",
          "name": "_name",
          "type": "string"
        },
        {
          "internalType": "string",
          "name": "_description",
          "type": "string"
        },
        {
          "internalType": "uint256",
          "name": "_rentalDeposit",
          "type": "uint256"
        },
        {
          "internalType": "uint256",
          "name": "_rentalFee",
          "type": "uint256"
        }
      ],
      "name": "createProduct",
      "outputs": [],
      "payable": false,
      "stateMutability": "nonpayable",
      "type": "function"
    },
    {
      "constant": false,
      "inputs": [
        {
          "internalType": "uint256",
          "name": "_id",
          "type": "uint256"
        }
      ],
      "name": "rentProduct",
      "outputs": [],
      "payable": true,
      "stateMutability": "payable",
      "type": "function"
    },
    {
      "constant": false,
      "inputs": [
        {
          "internalType": "uint256",
          "name": "_id",
          "type": "uint256"
        },
        {
          "internalType": "uint256",
          "name": "_rentalDays",
          "type": "uint256"
        }
      ],
      "name": "returnProduct",
      "outputs": [],
      "payable": true,
      "stateMutability": "payable",
      "type": "function"
    },
    {
      "constant": false,
      "inputs": [
        {
          "internalType": "uint256",
          "name": "_id",
          "type": "uint256"
        }
      ],
      "name": "deleteProduct",
      "outputs": [],
      "payable": false,
      "stateMutability": "nonpayable",
      "type": "function"
    },
    {
      "constant": false,
      "inputs": [
        {
          "internalType": "uint256",
          "name": "_id",
          "type": "uint256"
        },
        {
          "internalType": "string",
          "name": "_name",
          "type": "string"
        },
        {
          "internalType": "string",
          "name": "_description",
          "type": "string"
        },
        {
          "internalType": "uint256",
          "name": "_rentalDeposit",
          "type": "uint256"
        },
        {
          "internalType": "uint256",
          "name": "_rentalFee",
          "type": "uint256"
        }
      ],
      "name": "editProduct",
      "outputs": [],
      "payable": false,
      "stateMutability": "nonpayable",
      "type": "function"
    },
    {
      "constant": false,
      "inputs": [],
      "name": "destroy",
      "outputs": [],
      "payable": false,
      "stateMutability": "nonpayable",
      "type": "function"
    }
  ],
  "bytecode": "0x608060405260006002553480156200001657600080fd5b506040518060400160405280600c81526020017f45544852656e74204461707000000000000000000000000000000000000000008152506000908051906020019062000064929190620000ac565b5033600160006101000a81548173ffffffffffffffffffffffffffffffffffffffff021916908373ffffffffffffffffffffffffffffffffffffffff1602179055506200015b565b828054600181600116156101000203166002900490600052602060002090601f016020900481019282601f10620000ef57805160ff191683800117855562000120565b8280016001018555821562000120579182015b828111156200011f57825182559160200191906001019062000102565b5b5090506200012f919062000133565b5090565b6200015891905b80821115620001545760008160009055506001016200013a565b5090565b90565b6125a1806200016b6000396000f3fe6080604052600436106100865760003560e01c8063ca47b8c211610059578063ca47b8c214610452578063e0f6ef871461048a578063e3b96262146104b5578063ed90c7b714610632578063f4afd3b71461066d57610086565b806306fdde031461008b5780637acc0b201461011b57806383197ef0146102c857806390d16cba146102df575b600080fd5b34801561009757600080fd5b506100a061069b565b6040518080602001828103825283818151815260200191508051906020019080838360005b838110156100e05780820151818401526020810190506100c5565b50505050905090810190601f16801561010d5780820380516001836020036101000a031916815260200191505b509250505060405180910390f35b34801561012757600080fd5b506101546004803603602081101561013e57600080fd5b8101908080359060200190929190505050610739565b604051808a815260200180602001806020018981526020018881526020018773ffffffffffffffffffffffffffffffffffffffff1673ffffffffffffffffffffffffffffffffffffffff1681526020018673ffffffffffffffffffffffffffffffffffffffff1673ffffffffffffffffffffffffffffffffffffffff1681526020018581526020018415151515815260200183810383528b818151815260200191508051906020019080838360005b8381101561021e578082015181840152602081019050610203565b50505050905090810190601f16801561024b5780820380516001836020036101000a031916815260200191505b5083810382528a818151815260200191508051906020019080838360005b83811015610284578082015181840152602081019050610269565b50505050905090810190601f1680156102b15780820380516001836020036101000a031916815260200191505b509b50505050505050505050505060405180910390f35b3480156102d457600080fd5b506102dd610904565b005b3480156102eb57600080fd5b506104506004803603608081101561030257600080fd5b810190808035906020019064010000000081111561031f57600080fd5b82018360208201111561033157600080fd5b8035906020019184600183028401116401000000008311171561035357600080fd5b91908080601f016020809104026020016040519081016040528093929190818152602001838380828437600081840152601f19601f820116905080830192505050505050509192919290803590602001906401000000008111156103b657600080fd5b8201836020820111156103c857600080fd5b803590602001918460018302840111640100000000831117156103ea57600080fd5b91908080601f016020809104026020016040519081016040528093929190818152602001838380828437600081840152601f19601f8201169050808301925050505050505091929192908035906020019092919080359060200190929190505050610977565b005b6104886004803603604081101561046857600080fd5b810190808035906020019092919080359060200190929190505050610cc4565b005b34801561049657600080fd5b5061049f61133b565b6040518082815260200191505060405180910390f35b3480156104c157600080fd5b50610630600480360360a08110156104d857600080fd5b8101908080359060200190929190803590602001906401000000008111156104ff57600080fd5b82018360208201111561051157600080fd5b8035906020019184600183028401116401000000008311171561053357600080fd5b91908080601f016020809104026020016040519081016040528093929190818152602001838380828437600081840152601f19601f8201169050808301925050505050505091929192908035906020019064010000000081111561059657600080fd5b8201836020820111156105a857600080fd5b803590602001918460018302840111640100000000831117156105ca57600080fd5b91908080601f016020809104026020016040519081016040528093929190818152602001838380828437600081840152601f19601f8201169050808301925050505050505091929192908035906020019092919080359060200190929190505050611341565b005b34801561063e57600080fd5b5061066b6004803603602081101561065557600080fd5b810190808035906020019092919050505061193f565b005b6106996004803603602081101561068357600080fd5b8101908080359060200190929190505050611ea3565b005b60008054600181600116156101000203166002900480601f0160208091040260200160405190810160405280929190818152602001828054600181600116156101000203166002900480156107315780601f1061070657610100808354040283529160200191610731565b820191906000526020600020905b81548152906001019060200180831161071457829003601f168201915b505050505081565b6003602052806000526040600020600091509050806000015490806001018054600181600116156101000203166002900480601f0160208091040260200160405190810160405280929190818152602001828054600181600116156101000203166002900480156107eb5780601f106107c0576101008083540402835291602001916107eb565b820191906000526020600020905b8154815290600101906020018083116107ce57829003601f168201915b505050505090806002018054600181600116156101000203166002900480601f0160208091040260200160405190810160405280929190818152602001828054600181600116156101000203166002900480156108895780601f1061085e57610100808354040283529160200191610889565b820191906000526020600020905b81548152906001019060200180831161086c57829003601f168201915b5050505050908060030154908060040154908060050160009054906101000a900473ffffffffffffffffffffffffffffffffffffffff16908060060160009054906101000a900473ffffffffffffffffffffffffffffffffffffffff16908060070154908060080160009054906101000a900460ff16905089565b600160009054906101000a900473ffffffffffffffffffffffffffffffffffffffff1673ffffffffffffffffffffffffffffffffffffffff163373ffffffffffffffffffffffffffffffffffffffff161461095e57600080fd5b3373ffffffffffffffffffffffffffffffffffffffff16ff5b600084511161098557600080fd5b600083511161099357600080fd5b600082116109a057600080fd5b600081116109ad57600080fd5b60026000815480929190600101919050555060405180610120016040528060025481526020018581526020018481526020018381526020018281526020013373ffffffffffffffffffffffffffffffffffffffff1681526020013373ffffffffffffffffffffffffffffffffffffffff1681526020016000815260200160001515815250600360006002548152602001908152602001600020600082015181600001556020820151816001019080519060200190610a6c92919061244d565b506040820151816002019080519060200190610a8992919061244d565b50606082015181600301556080820151816004015560a08201518160050160006101000a81548173ffffffffffffffffffffffffffffffffffffffff021916908373ffffffffffffffffffffffffffffffffffffffff16021790555060c08201518160060160006101000a81548173ffffffffffffffffffffffffffffffffffffffff021916908373ffffffffffffffffffffffffffffffffffffffff16021790555060e082015181600701556101008201518160080160006101000a81548160ff0219169083151502179055509050507f8c8a646aa26b88fd0905c2963f0d4c8b43dd744cd428f633fbaba3c629d4214d600254858585853360006040518088815260200180602001806020018781526020018681526020018573ffffffffffffffffffffffffffffffffffffffff1673ffffffffffffffffffffffffffffffffffffffff16815260200184151515158152602001838103835289818151815260200191508051906020019080838360005b83811015610c17578082015181840152602081019050610bfc565b50505050905090810190601f168015610c445780820380516001836020036101000a031916815260200191505b50838103825288818151815260200191508051906020019080838360005b83811015610c7d578082015181840152602081019050610c62565b50505050905090810190601f168015610caa5780820380516001836020036101000a031916815260200191505b50995050505050505050505060405180910390a150505050565b610ccc6124cd565b600360008481526020019081526020016000206040518061012001604052908160008201548152602001600182018054600181600116156101000203166002900480601f016020809104026020016040519081016040528092919081815260200182805460018160011615610100020316600290048015610d8e5780601f10610d6357610100808354040283529160200191610d8e565b820191906000526020600020905b815481529060010190602001808311610d7157829003601f168201915b50505050508152602001600282018054600181600116156101000203166002900480601f016020809104026020016040519081016040528092919081815260200182805460018160011615610100020316600290048015610e305780601f10610e0557610100808354040283529160200191610e30565b820191906000526020600020905b815481529060010190602001808311610e1357829003601f168201915b5050505050815260200160038201548152602001600482015481526020016005820160009054906101000a900473ffffffffffffffffffffffffffffffffffffffff1673ffffffffffffffffffffffffffffffffffffffff1673ffffffffffffffffffffffffffffffffffffffff1681526020016006820160009054906101000a900473ffffffffffffffffffffffffffffffffffffffff1673ffffffffffffffffffffffffffffffffffffffff1673ffffffffffffffffffffffffffffffffffffffff168152602001600782015481526020016008820160009054906101000a900460ff161515151581525050905060008160a00151905060008260c00151905060008360000151118015610f4c5750600254836000015111155b610f5557600080fd5b826101000151610f6457600080fd5b8073ffffffffffffffffffffffffffffffffffffffff168273ffffffffffffffffffffffffffffffffffffffff161415610f9d57600080fd5b600042905060008460800151860290508460a001518560c0019073ffffffffffffffffffffffffffffffffffffffff16908173ffffffffffffffffffffffffffffffffffffffff1681525050600085610100019015159081151581525050846003600089815260200190815260200160002060008201518160000155602082015181600101908051906020019061103592919061244d565b50604082015181600201908051906020019061105292919061244d565b50606082015181600301556080820151816004015560a08201518160050160006101000a81548173ffffffffffffffffffffffffffffffffffffffff021916908373ffffffffffffffffffffffffffffffffffffffff16021790555060c08201518160060160006101000a81548173ffffffffffffffffffffffffffffffffffffffff021916908373ffffffffffffffffffffffffffffffffffffffff16021790555060e082015181600701556101008201518160080160006101000a81548160ff0219169083151502179055509050508373ffffffffffffffffffffffffffffffffffffffff166108fc829081150290604051600060405180830381858888f19350505050158015611169573d6000803e3d6000fd5b508273ffffffffffffffffffffffffffffffffffffffff166108fc828760600151039081150290604051600060405180830381858888f193505050501580156111b6573d6000803e3d6000fd5b507f047d6b10660634697dfa950f84eb4360ef9ddbf01e053c67a4d94feae84e765e60025486602001518760600151848960a00151888b60c001518d8d6101000151604051808a8152602001806020018981526020018881526020018773ffffffffffffffffffffffffffffffffffffffff1673ffffffffffffffffffffffffffffffffffffffff1681526020018673ffffffffffffffffffffffffffffffffffffffff1673ffffffffffffffffffffffffffffffffffffffff1681526020018573ffffffffffffffffffffffffffffffffffffffff1673ffffffffffffffffffffffffffffffffffffffff1681526020018481526020018315151515815260200182810382528a818151815260200191508051906020019080838360005b838110156112f05780820151818401526020810190506112d5565b50505050905090810190601f16801561131d5780820380516001836020036101000a031916815260200191505b509a505050505050505050505060405180910390a150505050505050565b60025481565b6113496124cd565b600360008781526020019081526020016000206040518061012001604052908160008201548152602001600182018054600181600116156101000203166002900480601f01602080910402602001604051908101604052809291908181526020018280546001816001161561010002031660029004801561140b5780601f106113e05761010080835404028352916020019161140b565b820191906000526020600020905b8154815290600101906020018083116113ee57829003601f168201915b50505050508152602001600282018054600181600116156101000203166002900480601f0160208091040260200160405190810160405280929190818152602001828054600181600116156101000203166002900480156114ad5780601f10611482576101008083540402835291602001916114ad565b820191906000526020600020905b81548152906001019060200180831161149057829003601f168201915b5050505050815260200160038201548152602001600482015481526020016005820160009054906101000a900473ffffffffffffffffffffffffffffffffffffffff1673ffffffffffffffffffffffffffffffffffffffff1673ffffffffffffffffffffffffffffffffffffffff1681526020016006820160009054906101000a900473ffffffffffffffffffffffffffffffffffffffff1673ffffffffffffffffffffffffffffffffffffffff1673ffffffffffffffffffffffffffffffffffffffff168152602001600782015481526020016008820160009054906101000a900460ff1615151515815250509050600081600001511180156115b75750600254816000015111155b6115c057600080fd5b3373ffffffffffffffffffffffffffffffffffffffff168160a0015173ffffffffffffffffffffffffffffffffffffffff16146115fc57600080fd5b8060a0015173ffffffffffffffffffffffffffffffffffffffff168160c0015173ffffffffffffffffffffffffffffffffffffffff161461163c57600080fd5b6040518061012001604052808781526020018681526020018581526020018481526020018381526020013373ffffffffffffffffffffffffffffffffffffffff1681526020013373ffffffffffffffffffffffffffffffffffffffff1681526020016000815260200160001515815250600360008881526020019081526020016000206000820151816000015560208201518160010190805190602001906116e592919061244d565b50604082015181600201908051906020019061170292919061244d565b50606082015181600301556080820151816004015560a08201518160050160006101000a81548173ffffffffffffffffffffffffffffffffffffffff021916908373ffffffffffffffffffffffffffffffffffffffff16021790555060c08201518160060160006101000a81548173ffffffffffffffffffffffffffffffffffffffff021916908373ffffffffffffffffffffffffffffffffffffffff16021790555060e082015181600701556101008201518160080160006101000a81548160ff0219169083151502179055509050507f4395962379538081681c437017fea0bacce34b2ace48a53f58302895bca20a8b600254868686863360006040518088815260200180602001806020018781526020018681526020018573ffffffffffffffffffffffffffffffffffffffff1673ffffffffffffffffffffffffffffffffffffffff16815260200184151515158152602001838103835289818151815260200191508051906020019080838360005b83811015611890578082015181840152602081019050611875565b50505050905090810190601f1680156118bd5780820380516001836020036101000a031916815260200191505b50838103825288818151815260200191508051906020019080838360005b838110156118f65780820151818401526020810190506118db565b50505050905090810190601f1680156119235780820380516001836020036101000a031916815260200191505b50995050505050505050505060405180910390a1505050505050565b6119476124cd565b600360008381526020019081526020016000206040518061012001604052908160008201548152602001600182018054600181600116156101000203166002900480601f016020809104026020016040519081016040528092919081815260200182805460018160011615610100020316600290048015611a095780601f106119de57610100808354040283529160200191611a09565b820191906000526020600020905b8154815290600101906020018083116119ec57829003601f168201915b50505050508152602001600282018054600181600116156101000203166002900480601f016020809104026020016040519081016040528092919081815260200182805460018160011615610100020316600290048015611aab5780601f10611a8057610100808354040283529160200191611aab565b820191906000526020600020905b815481529060010190602001808311611a8e57829003601f168201915b5050505050815260200160038201548152602001600482015481526020016005820160009054906101000a900473ffffffffffffffffffffffffffffffffffffffff1673ffffffffffffffffffffffffffffffffffffffff1673ffffffffffffffffffffffffffffffffffffffff1681526020016006820160009054906101000a900473ffffffffffffffffffffffffffffffffffffffff1673ffffffffffffffffffffffffffffffffffffffff1673ffffffffffffffffffffffffffffffffffffffff168152602001600782015481526020016008820160009054906101000a900460ff161515151581525050905060008160000151118015611bb55750600254816000015111155b611bbe57600080fd5b3373ffffffffffffffffffffffffffffffffffffffff168160a0015173ffffffffffffffffffffffffffffffffffffffff1614611bfa57600080fd5b8060a0015173ffffffffffffffffffffffffffffffffffffffff168160c0015173ffffffffffffffffffffffffffffffffffffffff1614611c3a57600080fd5b6001816101000190151590811515815250508060036000848152602001908152602001600020600082015181600001556020820151816001019080519060200190611c8692919061244d565b506040820151816002019080519060200190611ca392919061244d565b50606082015181600301556080820151816004015560a08201518160050160006101000a81548173ffffffffffffffffffffffffffffffffffffffff021916908373ffffffffffffffffffffffffffffffffffffffff16021790555060c08201518160060160006101000a81548173ffffffffffffffffffffffffffffffffffffffff021916908373ffffffffffffffffffffffffffffffffffffffff16021790555060e082015181600701556101008201518160080160006101000a81548160ff0219169083151502179055509050507ff9e6dea644dccaca9e43e3123143e9856ebd15cb6b1b72e5a12f0c93f0fc5a9e60025482602001518360a001518460c0015185610100015160405180868152602001806020018573ffffffffffffffffffffffffffffffffffffffff1673ffffffffffffffffffffffffffffffffffffffff1681526020018473ffffffffffffffffffffffffffffffffffffffff1673ffffffffffffffffffffffffffffffffffffffff16815260200183151515158152602001828103825286818151815260200191508051906020019080838360005b83811015611e61578082015181840152602081019050611e46565b50505050905090810190601f168015611e8e5780820380516001836020036101000a031916815260200191505b50965050505050505060405180910390a15050565b611eab6124cd565b600360008381526020019081526020016000206040518061012001604052908160008201548152602001600182018054600181600116156101000203166002900480601f016020809104026020016040519081016040528092919081815260200182805460018160011615610100020316600290048015611f6d5780601f10611f4257610100808354040283529160200191611f6d565b820191906000526020600020905b815481529060010190602001808311611f5057829003601f168201915b50505050508152602001600282018054600181600116156101000203166002900480601f01602080910402602001604051908101604052809291908181526020018280546001816001161561010002031660029004801561200f5780601f10611fe45761010080835404028352916020019161200f565b820191906000526020600020905b815481529060010190602001808311611ff257829003601f168201915b5050505050815260200160038201548152602001600482015481526020016005820160009054906101000a900473ffffffffffffffffffffffffffffffffffffffff1673ffffffffffffffffffffffffffffffffffffffff1673ffffffffffffffffffffffffffffffffffffffff1681526020016006820160009054906101000a900473ffffffffffffffffffffffffffffffffffffffff1673ffffffffffffffffffffffffffffffffffffffff1673ffffffffffffffffffffffffffffffffffffffff168152602001600782015481526020016008820160009054906101000a900460ff161515151581525050905060008160a001519050600082600001511180156121225750600254826000015111155b61212b57600080fd5b816060015134101561213c57600080fd5b8161010001511561214c57600080fd5b3373ffffffffffffffffffffffffffffffffffffffff168173ffffffffffffffffffffffffffffffffffffffff16141561218557600080fd5b338260c0019073ffffffffffffffffffffffffffffffffffffffff16908173ffffffffffffffffffffffffffffffffffffffff1681525050428260e0018181525050600182610100019015159081151581525050816003600085815260200190815260200160002060008201518160000155602082015181600101908051906020019061221392919061244d565b50604082015181600201908051906020019061223092919061244d565b50606082015181600301556080820151816004015560a08201518160050160006101000a81548173ffffffffffffffffffffffffffffffffffffffff021916908373ffffffffffffffffffffffffffffffffffffffff16021790555060c08201518160060160006101000a81548173ffffffffffffffffffffffffffffffffffffffff021916908373ffffffffffffffffffffffffffffffffffffffff16021790555060e082015181600701556101008201518160080160006101000a81548160ff0219169083151502179055509050507fec1cd7035a07e53aa480afdd728e41465b0105ea2f0885bda2dd9e1d54f773376002548360200151846060015185608001518660a00151338860e00151600160405180898152602001806020018881526020018781526020018673ffffffffffffffffffffffffffffffffffffffff1673ffffffffffffffffffffffffffffffffffffffff1681526020018573ffffffffffffffffffffffffffffffffffffffff1673ffffffffffffffffffffffffffffffffffffffff16815260200184815260200183151515158152602001828103825289818151815260200191508051906020019080838360005b838110156124075780820151818401526020810190506123ec565b50505050905090810190601f1680156124345780820380516001836020036101000a031916815260200191505b50995050505050505050505060405180910390a1505050565b828054600181600116156101000203166002900490600052602060002090601f016020900481019282601f1061248e57805160ff19168380011785556124bc565b828001600101855582156124bc579182015b828111156124bb5782518255916020019190600101906124a0565b5b5090506124c99190612547565b5090565b6040518061012001604052806000815260200160608152602001606081526020016000815260200160008152602001600073ffffffffffffffffffffffffffffffffffffffff168152602001600073ffffffffffffffffffffffffffffffffffffffff168152602001600081526020016000151581525090565b61256991905b8082111561256557600081600090555060010161254d565b5090565b9056fea265627a7a72315820f1af3f2366629eba31df895de5b8a2ac8157689a44eda472e0c95865512037ad64736f6c634300050c0032",
  "source": "pragma solidity >=0.4.21 <0.7.0;\n\ncontract Marketplace {\n  string public name;\n  address deployer;\n  uint public productCount = 0;\n  mapping(uint => Product) public products;\n  struct Product {\n    uint id;\n    string name;\n    string description;\n    uint rentalDeposit;\n    uint rentalFee;\n    address payable owner;\n    address payable custodian;\n    uint rentalStart;\n    bool rented;\n  }\n  event ProductCreated(\n    uint id,\n    string name,\n    string description,\n    uint rentalDeposit,\n    uint rentalFee,\n    address payable owner,\n    bool rented\n  );\n  event ProductRented(\n    uint id,\n    string name,\n    uint rentalDeposit,\n    uint rentalFee,\n    address owner,\n    address custodian,\n    uint rentalStart,\n    bool rented\n  );\n  event ProductReturned(\n    uint id,\n    string name,\n    uint rentalDeposit,\n    uint rentalCost,\n    address payable owner,\n    address payable borrower,\n    address custodian,\n    uint rentalDays,\n    bool rented\n  );\n  event ProductDeleted(\n    uint id,\n    string name,\n    address owner,\n    address custodian,\n    bool rented\n  );\n\n  event ProductEdited(\n    uint id,\n    string name,\n    string description,\n    uint rentalDeposit,\n    uint rentalFee,\n    address payable owner,\n    bool rented\n  );\n\n  constructor() public {\n    name = \"ETHRent Dapp\";\n    deployer = msg.sender;\n  }\n\n  function createProduct(string memory _name, string memory _description, uint _rentalDeposit, uint _rentalFee) public {\n    // Require a valid name\n    require(bytes(_name).length > 0);\n    // Require a valid description\n    require(bytes(_description).length > 0);\n    // Require a valid rental deposit\n    require(_rentalDeposit > 0);\n    // Require a valid rental fee\n    require(_rentalFee > 0);\n    // Increment product count\n    productCount ++;\n    // Create the product\n    products[productCount] = Product(productCount, _name, _description, _rentalDeposit, _rentalFee, msg.sender, msg.sender, 0, false);\n    // Trigger an event\n    emit ProductCreated(\n      productCount,\n      _name,\n      _description,\n      _rentalDeposit,\n      _rentalFee,\n      msg.sender,\n      false);\n  }\n\n  function rentProduct(uint _id) public payable {\n    // Fetch the product\n    Product memory _product = products[_id];\n    // Fetch the owner\n    address payable _owner = _product.owner;\n    // Make sure the product has a valid id\n    require(_product.id > 0 && _product.id <= productCount);\n    // Require that there is enough Ether in the transaction\n    require(msg.value >= _product.rentalDeposit);\n    // Require that the product has not been rented already\n    require(!_product.rented);\n    // Require that the borrower is not the owner\n    require(_owner != msg.sender);\n    // Transfer responsibility to the borrower\n    _product.custodian = msg.sender;\n    // Set time when rental starts\n    _product.rentalStart = now;\n    // uint endTime;\n    // endTime = _product.rentalStart + 2 days;\n    // Mark as rented\n    _product.rented = true;\n    // Update the product\n    products[_id] = _product;\n    // Trigger an event\n    emit ProductRented(\n      productCount,\n      _product.name,\n      _product.rentalDeposit,\n      _product.rentalFee,\n      _product.owner,\n      msg.sender,\n      _product.rentalStart,\n      true);\n  }\n\n  function returnProduct(uint _id, uint _rentalDays) public payable {\n    // Fetch the product\n    Product memory _product = products[_id];\n    // Fetch the owner\n    address payable _owner = _product.owner;\n    // Fetch the borrower\n    address payable _borrower = _product.custodian;\n    // Make sure the product has a valid id\n    require(_product.id > 0 && _product.id <= productCount);\n    // Require that the product is currently rented\n    require(_product.rented);\n    // Require that the borrower is not the owner\n    require(_owner != _borrower);\n    // Require that the account ending the rental is the owner\n    // require(_owner == msg.sender);\n    // Determine rental period, and associated rental cost\n    uint endTime;\n    endTime = now;\n    // uint rentalDays;\n    // rentalDays = ((endTime - _product.rentalStart) % 86400) + 2;\n    // rentalDays = 2; // Hard code rentalDays for testing\n    uint rentalCost;\n    rentalCost = _rentalDays * _product.rentalFee;\n    // Transfer responsibility back to owner\n    _product.custodian = _product.owner;\n    // Mark as rented\n    _product.rented = false;\n    // Update the product\n    products[_id] = _product;\n    // Pay the owner by sending them Ether\n    address(_owner).transfer(rentalCost);\n    // Return remaining deposit to the borrower\n    address(_borrower).transfer(_product.rentalDeposit - rentalCost);\n    // Trigger an event\n    emit ProductReturned(\n      productCount,\n      _product.name,\n      _product.rentalDeposit,\n      rentalCost,\n      _product.owner,\n      _borrower,\n      _product.custodian,\n      _rentalDays,\n      _product.rented);\n  }\n\n  function deleteProduct(uint _id) public {\n    // Fetch the product\n    Product memory _product = products[_id];\n    // Make sure the product has a valid id\n    require(_product.id > 0 && _product.id <= productCount);\n    // Make sure only the product owner can delete a product\n    require(_product.owner == msg.sender);\n    // Make sure the owner is currently the custodian of the product\n    require(_product.custodian == _product.owner);\n    // Mark as rented (i.e. unavailable to rent)\n    _product.rented = true;\n    // Update the product\n    products[_id] = _product;\n    // Trigger an event\n    emit ProductDeleted(\n      productCount,\n      _product.name,\n      _product.owner,\n      _product.custodian,\n      _product.rented);\n  }\n\n  function editProduct(uint _id, string memory _name, string memory _description, uint _rentalDeposit, uint _rentalFee) public {\n    // Fetch the product\n    Product memory _product = products[_id];\n    // Make sure the product has a valid id\n    require(_product.id > 0 && _product.id <= productCount);\n    // Make sure only the product owner can edit a product\n    require(_product.owner == msg.sender);\n    // Make sure the owner is currently the custodian of the product\n    require(_product.custodian == _product.owner);\n    // Edit the product\n    products[_id] = Product(_id, _name, _description, _rentalDeposit, _rentalFee, msg.sender, msg.sender, 0, false);\n    emit ProductEdited(\n      productCount,\n      _name,\n      _description,\n      _rentalDeposit,\n      _rentalFee,\n      msg.sender,\n      false);\n      }\n\n  function destroy() public {\n    // Make sure the function is being called by the contract deployer\n    require(msg.sender == deployer);\n    // Remove the contract from the blockchain, return any ether to the deployer\n    selfdestruct(msg.sender);\n  }\n\n}",
  "sourcePath": "/Users/chris/lighthouse/ETHRent/contracts/Marketplace.sol",
  "compiler": {
    "name": "solc",
    "version": "0.5.12+commit.7709ece9.Emscripten.clang"
  },
  "schemaVersion": "3.0.19",
  "updatedAt": "2020-01-07T02:15:18.781Z",
  "networkType": "ethereum",
  "devdoc": {
    "methods": {}
  },
  "userdoc": {
    "methods": {}
  }
}