{
  "contractName": "Marketplace",
  "abi": [
    {
      "inputs": [],
      "payable": false,
      "stateMutability": "nonpayable",
      "type": "constructor"
    },
    {
      "anonymous": false,
      "inputs": [
        {
          "indexed": false,
          "internalType": "uint256",
          "name": "id",
          "type": "uint256"
        },
        {
          "indexed": false,
          "internalType": "string",
          "name": "name",
          "type": "string"
        },
        {
          "indexed": false,
          "internalType": "string",
          "name": "description",
          "type": "string"
        },
        {
          "indexed": false,
          "internalType": "string",
          "name": "category",
          "type": "string"
        },
        {
          "indexed": false,
          "internalType": "uint256",
          "name": "rentalDeposit",
          "type": "uint256"
        },
        {
          "indexed": false,
          "internalType": "uint256",
          "name": "rentalFee",
          "type": "uint256"
        },
        {
          "indexed": false,
          "internalType": "address payable",
          "name": "owner",
          "type": "address"
        },
        {
          "indexed": false,
          "internalType": "bool",
          "name": "rented",
          "type": "bool"
        }
      ],
      "name": "ProductCreated",
      "type": "event"
    },
    {
      "anonymous": false,
      "inputs": [
        {
          "indexed": false,
          "internalType": "uint256",
          "name": "id",
          "type": "uint256"
        },
        {
          "indexed": false,
          "internalType": "string",
          "name": "name",
          "type": "string"
        },
        {
          "indexed": false,
          "internalType": "address",
          "name": "owner",
          "type": "address"
        },
        {
          "indexed": false,
          "internalType": "address",
          "name": "custodian",
          "type": "address"
        },
        {
          "indexed": false,
          "internalType": "bool",
          "name": "rented",
          "type": "bool"
        }
      ],
      "name": "ProductDeleted",
      "type": "event"
    },
    {
      "anonymous": false,
      "inputs": [
        {
          "indexed": false,
          "internalType": "uint256",
          "name": "id",
          "type": "uint256"
        },
        {
          "indexed": false,
          "internalType": "string",
          "name": "name",
          "type": "string"
        },
        {
          "indexed": false,
          "internalType": "string",
          "name": "description",
          "type": "string"
        },
        {
          "indexed": false,
          "internalType": "string",
          "name": "category",
          "type": "string"
        },
        {
          "indexed": false,
          "internalType": "uint256",
          "name": "rentalDeposit",
          "type": "uint256"
        },
        {
          "indexed": false,
          "internalType": "uint256",
          "name": "rentalFee",
          "type": "uint256"
        },
        {
          "indexed": false,
          "internalType": "address payable",
          "name": "owner",
          "type": "address"
        },
        {
          "indexed": false,
          "internalType": "bool",
          "name": "rented",
          "type": "bool"
        }
      ],
      "name": "ProductEdited",
      "type": "event"
    },
    {
      "anonymous": false,
      "inputs": [
        {
          "indexed": false,
          "internalType": "uint256",
          "name": "id",
          "type": "uint256"
        },
        {
          "indexed": false,
          "internalType": "string",
          "name": "name",
          "type": "string"
        },
        {
          "indexed": false,
          "internalType": "uint256",
          "name": "rentalDeposit",
          "type": "uint256"
        },
        {
          "indexed": false,
          "internalType": "uint256",
          "name": "rentalFee",
          "type": "uint256"
        },
        {
          "indexed": false,
          "internalType": "address",
          "name": "owner",
          "type": "address"
        },
        {
          "indexed": false,
          "internalType": "address",
          "name": "custodian",
          "type": "address"
        },
        {
          "indexed": false,
          "internalType": "uint256",
          "name": "rentalStart",
          "type": "uint256"
        },
        {
          "indexed": false,
          "internalType": "bool",
          "name": "rented",
          "type": "bool"
        }
      ],
      "name": "ProductRented",
      "type": "event"
    },
    {
      "anonymous": false,
      "inputs": [
        {
          "indexed": false,
          "internalType": "uint256",
          "name": "id",
          "type": "uint256"
        },
        {
          "indexed": false,
          "internalType": "string",
          "name": "name",
          "type": "string"
        },
        {
          "indexed": false,
          "internalType": "uint256",
          "name": "rentalDeposit",
          "type": "uint256"
        },
        {
          "indexed": false,
          "internalType": "uint256",
          "name": "rentalCost",
          "type": "uint256"
        },
        {
          "indexed": false,
          "internalType": "address payable",
          "name": "owner",
          "type": "address"
        },
        {
          "indexed": false,
          "internalType": "address payable",
          "name": "borrower",
          "type": "address"
        },
        {
          "indexed": false,
          "internalType": "address",
          "name": "custodian",
          "type": "address"
        },
        {
          "indexed": false,
          "internalType": "uint256",
          "name": "rentalDays",
          "type": "uint256"
        },
        {
          "indexed": false,
          "internalType": "bool",
          "name": "rented",
          "type": "bool"
        }
      ],
      "name": "ProductReturned",
      "type": "event"
    },
    {
      "constant": true,
      "inputs": [],
      "name": "name",
      "outputs": [
        {
          "internalType": "string",
          "name": "",
          "type": "string"
        }
      ],
      "payable": false,
      "stateMutability": "view",
      "type": "function"
    },
    {
      "constant": true,
      "inputs": [],
      "name": "productCount",
      "outputs": [
        {
          "internalType": "uint256",
          "name": "",
          "type": "uint256"
        }
      ],
      "payable": false,
      "stateMutability": "view",
      "type": "function"
    },
    {
      "constant": true,
      "inputs": [
        {
          "internalType": "uint256",
          "name": "",
          "type": "uint256"
        }
      ],
      "name": "products",
      "outputs": [
        {
          "internalType": "uint256",
          "name": "id",
          "type": "uint256"
        },
        {
          "internalType": "string",
          "name": "name",
          "type": "string"
        },
        {
          "internalType": "string",
          "name": "description",
          "type": "string"
        },
        {
          "internalType": "string",
          "name": "category",
          "type": "string"
        },
        {
          "internalType": "uint256",
          "name": "rentalDeposit",
          "type": "uint256"
        },
        {
          "internalType": "uint256",
          "name": "rentalFee",
          "type": "uint256"
        },
        {
          "internalType": "address payable",
          "name": "owner",
          "type": "address"
        },
        {
          "internalType": "address payable",
          "name": "custodian",
          "type": "address"
        },
        {
          "internalType": "uint256",
          "name": "rentalStart",
          "type": "uint256"
        },
        {
          "internalType": "bool",
          "name": "rented",
          "type": "bool"
        }
      ],
      "payable": false,
      "stateMutability": "view",
      "type": "function"
    },
    {
      "constant": false,
      "inputs": [
        {
          "internalType": "string",
          "name": "_name",
          "type": "string"
        },
        {
          "internalType": "string",
          "name": "_description",
          "type": "string"
        },
        {
          "internalType": "string",
          "name": "_category",
          "type": "string"
        },
        {
          "internalType": "uint256",
          "name": "_rentalDeposit",
          "type": "uint256"
        },
        {
          "internalType": "uint256",
          "name": "_rentalFee",
          "type": "uint256"
        }
      ],
      "name": "createProduct",
      "outputs": [],
      "payable": false,
      "stateMutability": "nonpayable",
      "type": "function"
    },
    {
      "constant": false,
      "inputs": [
        {
          "internalType": "uint256",
          "name": "_id",
          "type": "uint256"
        }
      ],
      "name": "rentProduct",
      "outputs": [],
      "payable": true,
      "stateMutability": "payable",
      "type": "function"
    },
    {
      "constant": false,
      "inputs": [
        {
          "internalType": "uint256",
          "name": "_id",
          "type": "uint256"
        },
        {
          "internalType": "uint256",
          "name": "_rentalDays",
          "type": "uint256"
        }
      ],
      "name": "returnProduct",
      "outputs": [],
      "payable": true,
      "stateMutability": "payable",
      "type": "function"
    },
    {
      "constant": false,
      "inputs": [
        {
          "internalType": "uint256",
          "name": "_id",
          "type": "uint256"
        }
      ],
      "name": "deleteProduct",
      "outputs": [],
      "payable": false,
      "stateMutability": "nonpayable",
      "type": "function"
    },
    {
      "constant": false,
      "inputs": [
        {
          "internalType": "uint256",
          "name": "_id",
          "type": "uint256"
        },
        {
          "internalType": "string",
          "name": "_name",
          "type": "string"
        },
        {
          "internalType": "string",
          "name": "_description",
          "type": "string"
        },
        {
          "internalType": "string",
          "name": "_category",
          "type": "string"
        },
        {
          "internalType": "uint256",
          "name": "_rentalDeposit",
          "type": "uint256"
        },
        {
          "internalType": "uint256",
          "name": "_rentalFee",
          "type": "uint256"
        }
      ],
      "name": "editProduct",
      "outputs": [],
      "payable": false,
      "stateMutability": "nonpayable",
      "type": "function"
    },
    {
      "constant": false,
      "inputs": [],
      "name": "destroy",
      "outputs": [],
      "payable": false,
      "stateMutability": "nonpayable",
      "type": "function"
    }
  ],
  "bytecode": "0x608060405260006002553480156200001657600080fd5b506040518060400160405280600c81526020017f45544852656e74204461707000000000000000000000000000000000000000008152506000908051906020019062000064929190620000ac565b5033600160006101000a81548173ffffffffffffffffffffffffffffffffffffffff021916908373ffffffffffffffffffffffffffffffffffffffff1602179055506200015b565b828054600181600116156101000203166002900490600052602060002090601f016020900481019282601f10620000ef57805160ff191683800117855562000120565b8280016001018555821562000120579182015b828111156200011f57825182559160200191906001019062000102565b5b5090506200012f919062000133565b5090565b6200015891905b80821115620001545760008160009055506001016200013a565b5090565b90565b612ba2806200016b6000396000f3fe6080604052600436106100865760003560e01c80638512fcc3116100595780638512fcc314610555578063ca47b8c214610769578063e0f6ef87146107a1578063ed90c7b7146107cc578063f4afd3b71461080757610086565b806306fdde031461008b5780631a481ecf1461011b5780637acc0b201461032557806383197ef01461053e575b600080fd5b34801561009757600080fd5b506100a0610835565b6040518080602001828103825283818151815260200191508051906020019080838360005b838110156100e05780820151818401526020810190506100c5565b50505050905090810190601f16801561010d5780820380516001836020036101000a031916815260200191505b509250505060405180910390f35b34801561012757600080fd5b50610323600480360360a081101561013e57600080fd5b810190808035906020019064010000000081111561015b57600080fd5b82018360208201111561016d57600080fd5b8035906020019184600183028401116401000000008311171561018f57600080fd5b91908080601f016020809104026020016040519081016040528093929190818152602001838380828437600081840152601f19601f820116905080830192505050505050509192919290803590602001906401000000008111156101f257600080fd5b82018360208201111561020457600080fd5b8035906020019184600183028401116401000000008311171561022657600080fd5b91908080601f016020809104026020016040519081016040528093929190818152602001838380828437600081840152601f19601f8201169050808301925050505050505091929192908035906020019064010000000081111561028957600080fd5b82018360208201111561029b57600080fd5b803590602001918460018302840111640100000000831117156102bd57600080fd5b91908080601f016020809104026020016040519081016040528093929190818152602001838380828437600081840152601f19601f82011690508083019250505050505050919291929080359060200190929190803590602001909291905050506108d3565b005b34801561033157600080fd5b5061035e6004803603602081101561034857600080fd5b8101908080359060200190929190505050610cb2565b604051808b81526020018060200180602001806020018a81526020018981526020018873ffffffffffffffffffffffffffffffffffffffff1673ffffffffffffffffffffffffffffffffffffffff1681526020018773ffffffffffffffffffffffffffffffffffffffff1673ffffffffffffffffffffffffffffffffffffffff1681526020018681526020018515151515815260200184810384528d818151815260200191508051906020019080838360005b8381101561042c578082015181840152602081019050610411565b50505050905090810190601f1680156104595780820380516001836020036101000a031916815260200191505b5084810383528c818151815260200191508051906020019080838360005b83811015610492578082015181840152602081019050610477565b50505050905090810190601f1680156104bf5780820380516001836020036101000a031916815260200191505b5084810382528b818151815260200191508051906020019080838360005b838110156104f85780820151818401526020810190506104dd565b50505050905090810190601f1680156105255780820380516001836020036101000a031916815260200191505b509d505050505050505050505050505060405180910390f35b34801561054a57600080fd5b50610553610f1b565b005b34801561056157600080fd5b50610767600480360360c081101561057857600080fd5b81019080803590602001909291908035906020019064010000000081111561059f57600080fd5b8201836020820111156105b157600080fd5b803590602001918460018302840111640100000000831117156105d357600080fd5b91908080601f016020809104026020016040519081016040528093929190818152602001838380828437600081840152601f19601f8201169050808301925050505050505091929192908035906020019064010000000081111561063657600080fd5b82018360208201111561064857600080fd5b8035906020019184600183028401116401000000008311171561066a57600080fd5b91908080601f016020809104026020016040519081016040528093929190818152602001838380828437600081840152601f19601f820116905080830192505050505050509192919290803590602001906401000000008111156106cd57600080fd5b8201836020820111156106df57600080fd5b8035906020019184600183028401116401000000008311171561070157600080fd5b91908080601f016020809104026020016040519081016040528093929190818152602001838380828437600081840152601f19601f8201169050808301925050505050505091929192908035906020019092919080359060200190929190505050610f8e565b005b61079f6004803603604081101561077f57600080fd5b81019080803590602001909291908035906020019092919050505061167a565b005b3480156107ad57600080fd5b506107b6611db1565b6040518082815260200191505060405180910390f35b3480156107d857600080fd5b50610805600480360360208110156107ef57600080fd5b8101908080359060200190929190505050611db7565b005b6108336004803603602081101561081d57600080fd5b81019080803590602001909291905050506123db565b005b60008054600181600116156101000203166002900480601f0160208091040260200160405190810160405280929190818152602001828054600181600116156101000203166002900480156108cb5780601f106108a0576101008083540402835291602001916108cb565b820191906000526020600020905b8154815290600101906020018083116108ae57829003601f168201915b505050505081565b60008551116108e157600080fd5b60008451116108ef57600080fd5b600082116108fc57600080fd5b6000811161090957600080fd5b60026000815480929190600101919050555060405180610140016040528060025481526020018681526020018581526020018481526020018381526020018281526020013373ffffffffffffffffffffffffffffffffffffffff1681526020013373ffffffffffffffffffffffffffffffffffffffff16815260200160008152602001600015158152506003600060025481526020019081526020016000206000820151816000015560208201518160010190805190602001906109ce929190612a47565b5060408201518160020190805190602001906109eb929190612a47565b506060820151816003019080519060200190610a08929190612a47565b506080820151816004015560a0820151816005015560c08201518160060160006101000a81548173ffffffffffffffffffffffffffffffffffffffff021916908373ffffffffffffffffffffffffffffffffffffffff16021790555060e08201518160070160006101000a81548173ffffffffffffffffffffffffffffffffffffffff021916908373ffffffffffffffffffffffffffffffffffffffff16021790555061010082015181600801556101208201518160090160006101000a81548160ff0219169083151502179055509050507fd0623ec2515398fa5e947fefc2032a26e9fbde86ddee05fa731d78671c3ef3b46002548686868686336000604051808981526020018060200180602001806020018881526020018781526020018673ffffffffffffffffffffffffffffffffffffffff1673ffffffffffffffffffffffffffffffffffffffff1681526020018515151515815260200184810384528b818151815260200191508051906020019080838360005b83811015610b9c578082015181840152602081019050610b81565b50505050905090810190601f168015610bc95780820380516001836020036101000a031916815260200191505b5084810383528a818151815260200191508051906020019080838360005b83811015610c02578082015181840152602081019050610be7565b50505050905090810190601f168015610c2f5780820380516001836020036101000a031916815260200191505b50848103825289818151815260200191508051906020019080838360005b83811015610c68578082015181840152602081019050610c4d565b50505050905090810190601f168015610c955780820380516001836020036101000a031916815260200191505b509b50505050505050505050505060405180910390a15050505050565b6003602052806000526040600020600091509050806000015490806001018054600181600116156101000203166002900480601f016020809104026020016040519081016040528092919081815260200182805460018160011615610100020316600290048015610d645780601f10610d3957610100808354040283529160200191610d64565b820191906000526020600020905b815481529060010190602001808311610d4757829003601f168201915b505050505090806002018054600181600116156101000203166002900480601f016020809104026020016040519081016040528092919081815260200182805460018160011615610100020316600290048015610e025780601f10610dd757610100808354040283529160200191610e02565b820191906000526020600020905b815481529060010190602001808311610de557829003601f168201915b505050505090806003018054600181600116156101000203166002900480601f016020809104026020016040519081016040528092919081815260200182805460018160011615610100020316600290048015610ea05780601f10610e7557610100808354040283529160200191610ea0565b820191906000526020600020905b815481529060010190602001808311610e8357829003601f168201915b5050505050908060040154908060050154908060060160009054906101000a900473ffffffffffffffffffffffffffffffffffffffff16908060070160009054906101000a900473ffffffffffffffffffffffffffffffffffffffff16908060080154908060090160009054906101000a900460ff1690508a565b600160009054906101000a900473ffffffffffffffffffffffffffffffffffffffff1673ffffffffffffffffffffffffffffffffffffffff163373ffffffffffffffffffffffffffffffffffffffff1614610f7557600080fd5b3373ffffffffffffffffffffffffffffffffffffffff16ff5b610f96612ac7565b600360008881526020019081526020016000206040518061014001604052908160008201548152602001600182018054600181600116156101000203166002900480601f0160208091040260200160405190810160405280929190818152602001828054600181600116156101000203166002900480156110585780601f1061102d57610100808354040283529160200191611058565b820191906000526020600020905b81548152906001019060200180831161103b57829003601f168201915b50505050508152602001600282018054600181600116156101000203166002900480601f0160208091040260200160405190810160405280929190818152602001828054600181600116156101000203166002900480156110fa5780601f106110cf576101008083540402835291602001916110fa565b820191906000526020600020905b8154815290600101906020018083116110dd57829003601f168201915b50505050508152602001600382018054600181600116156101000203166002900480601f01602080910402602001604051908101604052809291908181526020018280546001816001161561010002031660029004801561119c5780601f106111715761010080835404028352916020019161119c565b820191906000526020600020905b81548152906001019060200180831161117f57829003601f168201915b5050505050815260200160048201548152602001600582015481526020016006820160009054906101000a900473ffffffffffffffffffffffffffffffffffffffff1673ffffffffffffffffffffffffffffffffffffffff1673ffffffffffffffffffffffffffffffffffffffff1681526020016007820160009054906101000a900473ffffffffffffffffffffffffffffffffffffffff1673ffffffffffffffffffffffffffffffffffffffff1673ffffffffffffffffffffffffffffffffffffffff168152602001600882015481526020016009820160009054906101000a900460ff1615151515815250509050600081600001511180156112a65750600254816000015111155b6112af57600080fd5b3373ffffffffffffffffffffffffffffffffffffffff168160c0015173ffffffffffffffffffffffffffffffffffffffff16146112eb57600080fd5b8060c0015173ffffffffffffffffffffffffffffffffffffffff168160e0015173ffffffffffffffffffffffffffffffffffffffff161461132b57600080fd5b85816020018190525084816040018190525083816060018190525082816080018181525050818160a00181815250508060036000898152602001908152602001600020600082015181600001556020820151816001019080519060200190611394929190612a47565b5060408201518160020190805190602001906113b1929190612a47565b5060608201518160030190805190602001906113ce929190612a47565b506080820151816004015560a0820151816005015560c08201518160060160006101000a81548173ffffffffffffffffffffffffffffffffffffffff021916908373ffffffffffffffffffffffffffffffffffffffff16021790555060e08201518160070160006101000a81548173ffffffffffffffffffffffffffffffffffffffff021916908373ffffffffffffffffffffffffffffffffffffffff16021790555061010082015181600801556101208201518160090160006101000a81548160ff0219169083151502179055509050507fdb377c4e0c64e1a8e4fa894b9a259b3f630eef5f082642c752c1ac7984540f196002548787878787336000604051808981526020018060200180602001806020018881526020018781526020018673ffffffffffffffffffffffffffffffffffffffff1673ffffffffffffffffffffffffffffffffffffffff1681526020018515151515815260200184810384528b818151815260200191508051906020019080838360005b83811015611562578082015181840152602081019050611547565b50505050905090810190601f16801561158f5780820380516001836020036101000a031916815260200191505b5084810383528a818151815260200191508051906020019080838360005b838110156115c85780820151818401526020810190506115ad565b50505050905090810190601f1680156115f55780820380516001836020036101000a031916815260200191505b50848103825289818151815260200191508051906020019080838360005b8381101561162e578082015181840152602081019050611613565b50505050905090810190601f16801561165b5780820380516001836020036101000a031916815260200191505b509b50505050505050505050505060405180910390a150505050505050565b611682612ac7565b600360008481526020019081526020016000206040518061014001604052908160008201548152602001600182018054600181600116156101000203166002900480601f0160208091040260200160405190810160405280929190818152602001828054600181600116156101000203166002900480156117445780601f1061171957610100808354040283529160200191611744565b820191906000526020600020905b81548152906001019060200180831161172757829003601f168201915b50505050508152602001600282018054600181600116156101000203166002900480601f0160208091040260200160405190810160405280929190818152602001828054600181600116156101000203166002900480156117e65780601f106117bb576101008083540402835291602001916117e6565b820191906000526020600020905b8154815290600101906020018083116117c957829003601f168201915b50505050508152602001600382018054600181600116156101000203166002900480601f0160208091040260200160405190810160405280929190818152602001828054600181600116156101000203166002900480156118885780601f1061185d57610100808354040283529160200191611888565b820191906000526020600020905b81548152906001019060200180831161186b57829003601f168201915b5050505050815260200160048201548152602001600582015481526020016006820160009054906101000a900473ffffffffffffffffffffffffffffffffffffffff1673ffffffffffffffffffffffffffffffffffffffff1673ffffffffffffffffffffffffffffffffffffffff1681526020016007820160009054906101000a900473ffffffffffffffffffffffffffffffffffffffff1673ffffffffffffffffffffffffffffffffffffffff1673ffffffffffffffffffffffffffffffffffffffff168152602001600882015481526020016009820160009054906101000a900460ff161515151581525050905060008160c00151905060008260e001519050600083600001511180156119a45750600254836000015111155b6119ad57600080fd5b8261012001516119bc57600080fd5b8073ffffffffffffffffffffffffffffffffffffffff168273ffffffffffffffffffffffffffffffffffffffff1614156119f557600080fd5b600042905060008460a00151860290508460c001518560e0019073ffffffffffffffffffffffffffffffffffffffff16908173ffffffffffffffffffffffffffffffffffffffff16815250506000856101200190151590811515815250508460036000898152602001908152602001600020600082015181600001556020820151816001019080519060200190611a8d929190612a47565b506040820151816002019080519060200190611aaa929190612a47565b506060820151816003019080519060200190611ac7929190612a47565b506080820151816004015560a0820151816005015560c08201518160060160006101000a81548173ffffffffffffffffffffffffffffffffffffffff021916908373ffffffffffffffffffffffffffffffffffffffff16021790555060e08201518160070160006101000a81548173ffffffffffffffffffffffffffffffffffffffff021916908373ffffffffffffffffffffffffffffffffffffffff16021790555061010082015181600801556101208201518160090160006101000a81548160ff0219169083151502179055509050508373ffffffffffffffffffffffffffffffffffffffff166108fc829081150290604051600060405180830381858888f19350505050158015611bdf573d6000803e3d6000fd5b508273ffffffffffffffffffffffffffffffffffffffff166108fc828760800151039081150290604051600060405180830381858888f19350505050158015611c2c573d6000803e3d6000fd5b507f047d6b10660634697dfa950f84eb4360ef9ddbf01e053c67a4d94feae84e765e60025486602001518760800151848960c00151888b60e001518d8d6101200151604051808a8152602001806020018981526020018881526020018773ffffffffffffffffffffffffffffffffffffffff1673ffffffffffffffffffffffffffffffffffffffff1681526020018673ffffffffffffffffffffffffffffffffffffffff1673ffffffffffffffffffffffffffffffffffffffff1681526020018573ffffffffffffffffffffffffffffffffffffffff1673ffffffffffffffffffffffffffffffffffffffff1681526020018481526020018315151515815260200182810382528a818151815260200191508051906020019080838360005b83811015611d66578082015181840152602081019050611d4b565b50505050905090810190601f168015611d935780820380516001836020036101000a031916815260200191505b509a505050505050505050505060405180910390a150505050505050565b60025481565b611dbf612ac7565b600360008381526020019081526020016000206040518061014001604052908160008201548152602001600182018054600181600116156101000203166002900480601f016020809104026020016040519081016040528092919081815260200182805460018160011615610100020316600290048015611e815780601f10611e5657610100808354040283529160200191611e81565b820191906000526020600020905b815481529060010190602001808311611e6457829003601f168201915b50505050508152602001600282018054600181600116156101000203166002900480601f016020809104026020016040519081016040528092919081815260200182805460018160011615610100020316600290048015611f235780601f10611ef857610100808354040283529160200191611f23565b820191906000526020600020905b815481529060010190602001808311611f0657829003601f168201915b50505050508152602001600382018054600181600116156101000203166002900480601f016020809104026020016040519081016040528092919081815260200182805460018160011615610100020316600290048015611fc55780601f10611f9a57610100808354040283529160200191611fc5565b820191906000526020600020905b815481529060010190602001808311611fa857829003601f168201915b5050505050815260200160048201548152602001600582015481526020016006820160009054906101000a900473ffffffffffffffffffffffffffffffffffffffff1673ffffffffffffffffffffffffffffffffffffffff1673ffffffffffffffffffffffffffffffffffffffff1681526020016007820160009054906101000a900473ffffffffffffffffffffffffffffffffffffffff1673ffffffffffffffffffffffffffffffffffffffff1673ffffffffffffffffffffffffffffffffffffffff168152602001600882015481526020016009820160009054906101000a900460ff1615151515815250509050600081600001511180156120cf5750600254816000015111155b6120d857600080fd5b3373ffffffffffffffffffffffffffffffffffffffff168160c0015173ffffffffffffffffffffffffffffffffffffffff161461211457600080fd5b8060c0015173ffffffffffffffffffffffffffffffffffffffff168160e0015173ffffffffffffffffffffffffffffffffffffffff161461215457600080fd5b60018161012001901515908115158152505080600360008481526020019081526020016000206000820151816000015560208201518160010190805190602001906121a0929190612a47565b5060408201518160020190805190602001906121bd929190612a47565b5060608201518160030190805190602001906121da929190612a47565b506080820151816004015560a0820151816005015560c08201518160060160006101000a81548173ffffffffffffffffffffffffffffffffffffffff021916908373ffffffffffffffffffffffffffffffffffffffff16021790555060e08201518160070160006101000a81548173ffffffffffffffffffffffffffffffffffffffff021916908373ffffffffffffffffffffffffffffffffffffffff16021790555061010082015181600801556101208201518160090160006101000a81548160ff0219169083151502179055509050507ff9e6dea644dccaca9e43e3123143e9856ebd15cb6b1b72e5a12f0c93f0fc5a9e60025482602001518360c001518460e0015185610120015160405180868152602001806020018573ffffffffffffffffffffffffffffffffffffffff1673ffffffffffffffffffffffffffffffffffffffff1681526020018473ffffffffffffffffffffffffffffffffffffffff1673ffffffffffffffffffffffffffffffffffffffff16815260200183151515158152602001828103825286818151815260200191508051906020019080838360005b8381101561239957808201518184015260208101905061237e565b50505050905090810190601f1680156123c65780820380516001836020036101000a031916815260200191505b50965050505050505060405180910390a15050565b6123e3612ac7565b600360008381526020019081526020016000206040518061014001604052908160008201548152602001600182018054600181600116156101000203166002900480601f0160208091040260200160405190810160405280929190818152602001828054600181600116156101000203166002900480156124a55780601f1061247a576101008083540402835291602001916124a5565b820191906000526020600020905b81548152906001019060200180831161248857829003601f168201915b50505050508152602001600282018054600181600116156101000203166002900480601f0160208091040260200160405190810160405280929190818152602001828054600181600116156101000203166002900480156125475780601f1061251c57610100808354040283529160200191612547565b820191906000526020600020905b81548152906001019060200180831161252a57829003601f168201915b50505050508152602001600382018054600181600116156101000203166002900480601f0160208091040260200160405190810160405280929190818152602001828054600181600116156101000203166002900480156125e95780601f106125be576101008083540402835291602001916125e9565b820191906000526020600020905b8154815290600101906020018083116125cc57829003601f168201915b5050505050815260200160048201548152602001600582015481526020016006820160009054906101000a900473ffffffffffffffffffffffffffffffffffffffff1673ffffffffffffffffffffffffffffffffffffffff1673ffffffffffffffffffffffffffffffffffffffff1681526020016007820160009054906101000a900473ffffffffffffffffffffffffffffffffffffffff1673ffffffffffffffffffffffffffffffffffffffff1673ffffffffffffffffffffffffffffffffffffffff168152602001600882015481526020016009820160009054906101000a900460ff161515151581525050905060008160c001519050600082600001511180156126fc5750600254826000015111155b61270557600080fd5b816080015134101561271657600080fd5b8161012001511561272657600080fd5b3373ffffffffffffffffffffffffffffffffffffffff168173ffffffffffffffffffffffffffffffffffffffff16141561275f57600080fd5b338260e0019073ffffffffffffffffffffffffffffffffffffffff16908173ffffffffffffffffffffffffffffffffffffffff1681525050428261010001818152505060018261012001901515908115158152505081600360008581526020019081526020016000206000820151816000015560208201518160010190805190602001906127ee929190612a47565b50604082015181600201908051906020019061280b929190612a47565b506060820151816003019080519060200190612828929190612a47565b506080820151816004015560a0820151816005015560c08201518160060160006101000a81548173ffffffffffffffffffffffffffffffffffffffff021916908373ffffffffffffffffffffffffffffffffffffffff16021790555060e08201518160070160006101000a81548173ffffffffffffffffffffffffffffffffffffffff021916908373ffffffffffffffffffffffffffffffffffffffff16021790555061010082015181600801556101208201518160090160006101000a81548160ff0219169083151502179055509050507fec1cd7035a07e53aa480afdd728e41465b0105ea2f0885bda2dd9e1d54f77337600254836020015184608001518560a001518660c0015133886101000151600160405180898152602001806020018881526020018781526020018673ffffffffffffffffffffffffffffffffffffffff1673ffffffffffffffffffffffffffffffffffffffff1681526020018573ffffffffffffffffffffffffffffffffffffffff1673ffffffffffffffffffffffffffffffffffffffff16815260200184815260200183151515158152602001828103825289818151815260200191508051906020019080838360005b83811015612a015780820151818401526020810190506129e6565b50505050905090810190601f168015612a2e5780820380516001836020036101000a031916815260200191505b50995050505050505050505060405180910390a1505050565b828054600181600116156101000203166002900490600052602060002090601f016020900481019282601f10612a8857805160ff1916838001178555612ab6565b82800160010185558215612ab6579182015b82811115612ab5578251825591602001919060010190612a9a565b5b509050612ac39190612b48565b5090565b604051806101400160405280600081526020016060815260200160608152602001606081526020016000815260200160008152602001600073ffffffffffffffffffffffffffffffffffffffff168152602001600073ffffffffffffffffffffffffffffffffffffffff168152602001600081526020016000151581525090565b612b6a91905b80821115612b66576000816000905550600101612b4e565b5090565b9056fea265627a7a723158201a3c896cdd482be93129931a5866b0ee6fb1d302bad945767ddd3a8c7f87b1a364736f6c634300050c0032",
  "source": "pragma solidity >=0.4.21 <0.7.0;\n\ncontract Marketplace {\n  string public name;\n  address deployer;\n  uint public productCount = 0;\n  mapping(uint => Product) public products;\n  struct Product {\n    uint id;\n    string name;\n    string description;\n    string category;\n    uint rentalDeposit;\n    uint rentalFee;\n    address payable owner;\n    address payable custodian;\n    uint rentalStart;\n    bool rented;\n  }\n  event ProductCreated(\n    uint id,\n    string name,\n    string description,\n    string category,\n    uint rentalDeposit,\n    uint rentalFee,\n    address payable owner,\n    bool rented\n  );\n  event ProductRented(\n    uint id,\n    string name,\n    uint rentalDeposit,\n    uint rentalFee,\n    address owner,\n    address custodian,\n    uint rentalStart,\n    bool rented\n  );\n  event ProductReturned(\n    uint id,\n    string name,\n    uint rentalDeposit,\n    uint rentalCost,\n    address payable owner,\n    address payable borrower,\n    address custodian,\n    uint rentalDays,\n    bool rented\n  );\n  event ProductDeleted(\n    uint id,\n    string name,\n    address owner,\n    address custodian,\n    bool rented\n  );\n\n  event ProductEdited(\n    uint id,\n    string name,\n    string description,\n    string category,\n    uint rentalDeposit,\n    uint rentalFee,\n    address payable owner,\n    bool rented\n  );\n\n  constructor() public {\n    name = \"ETHRent Dapp\";\n    deployer = msg.sender;\n  }\n\n  function createProduct(string memory _name, string memory _description, string memory _category, uint _rentalDeposit, uint _rentalFee) public {\n    // Require a valid name\n    require(bytes(_name).length > 0);\n    // Require a valid description\n    require(bytes(_description).length > 0);\n    // Require a valid rental deposit\n    require(_rentalDeposit > 0);\n    // Require a valid rental fee\n    require(_rentalFee > 0);\n    // Increment product count\n    productCount ++;\n    // Create the product\n    products[productCount] = Product(productCount, _name, _description, _category, _rentalDeposit, _rentalFee, msg.sender, msg.sender, 0, false);\n    // Trigger an event\n    emit ProductCreated(\n      productCount,\n      _name,\n      _description,\n      _category,\n      _rentalDeposit,\n      _rentalFee,\n      msg.sender,\n      false);\n  }\n\n  function rentProduct(uint _id) public payable {\n    // Fetch the product\n    Product memory _product = products[_id];\n    // Fetch the owner\n    address payable _owner = _product.owner;\n    // Make sure the product has a valid id\n    require(_product.id > 0 && _product.id <= productCount);\n    // Require that there is enough Ether in the transaction\n    require(msg.value >= _product.rentalDeposit);\n    // Require that the product has not been rented already\n    require(!_product.rented);\n    // Require that the borrower is not the owner\n    require(_owner != msg.sender);\n    // Transfer responsibility to the borrower\n    _product.custodian = msg.sender;\n    // Set time when rental starts\n    _product.rentalStart = now;\n    // uint endTime;\n    // endTime = _product.rentalStart + 2 days;\n    // Mark as rented\n    _product.rented = true;\n    // Update the product\n    products[_id] = _product;\n    // Trigger an event\n    emit ProductRented(\n      productCount,\n      _product.name,\n      _product.rentalDeposit,\n      _product.rentalFee,\n      _product.owner,\n      msg.sender,\n      _product.rentalStart,\n      true);\n  }\n\n  function returnProduct(uint _id, uint _rentalDays) public payable {\n    // Fetch the product\n    Product memory _product = products[_id];\n    // Fetch the owner\n    address payable _owner = _product.owner;\n    // Fetch the borrower\n    address payable _borrower = _product.custodian;\n    // Make sure the product has a valid id\n    require(_product.id > 0 && _product.id <= productCount);\n    // Require that the product is currently rented\n    require(_product.rented);\n    // Require that the borrower is not the owner\n    require(_owner != _borrower);\n    // Require that the account ending the rental is the owner\n    // require(_owner == msg.sender);\n    // Determine rental period, and associated rental cost\n    uint endTime;\n    endTime = now;\n    // uint rentalDays;\n    // rentalDays = ((endTime - _product.rentalStart) % 86400) + 2;\n    // rentalDays = 2; // Hard code rentalDays for testing\n    uint rentalCost;\n    rentalCost = _rentalDays * _product.rentalFee;\n    // Transfer responsibility back to owner\n    _product.custodian = _product.owner;\n    // Mark as rented\n    _product.rented = false;\n    // Update the product\n    products[_id] = _product;\n    // Pay the owner by sending them Ether\n    address(_owner).transfer(rentalCost);\n    // Return remaining deposit to the borrower\n    address(_borrower).transfer(_product.rentalDeposit - rentalCost);\n    // Trigger an event\n    emit ProductReturned(\n      productCount,\n      _product.name,\n      _product.rentalDeposit,\n      rentalCost,\n      _product.owner,\n      _borrower,\n      _product.custodian,\n      _rentalDays,\n      _product.rented);\n  }\n\n  function deleteProduct(uint _id) public {\n    // Fetch the product\n    Product memory _product = products[_id];\n    // Make sure the product has a valid id\n    require(_product.id > 0 && _product.id <= productCount);\n    // Make sure only the product owner can delete a product\n    require(_product.owner == msg.sender);\n    // Make sure the owner is currently the custodian of the product\n    require(_product.custodian == _product.owner);\n    // Mark as rented (i.e. unavailable to rent)\n    _product.rented = true;\n    // Update the product\n    products[_id] = _product;\n    // Trigger an event\n    emit ProductDeleted(\n      productCount,\n      _product.name,\n      _product.owner,\n      _product.custodian,\n      _product.rented);\n  }\n\n  function editProduct(uint _id, string memory _name, string memory _description, string memory _category, uint _rentalDeposit, uint _rentalFee) public {\n    // Fetch the product\n    Product memory _product = products[_id];\n    // Make sure the product has a valid id\n    require(_product.id > 0 && _product.id <= productCount);\n    // Make sure only the product owner can edit a product\n    require(_product.owner == msg.sender);\n    // Make sure the owner is currently the custodian of the product\n    require(_product.custodian == _product.owner);\n    // Edit the product\n    _product.name = _name;\n    _product.description = _description;\n    _product.category = _category;\n    _product.rentalDeposit = _rentalDeposit;\n    _product.rentalFee = _rentalFee;\n    products[_id] = _product;\n    emit ProductEdited(\n      productCount,\n      _name,\n      _description,\n      _category,\n      _rentalDeposit,\n      _rentalFee,\n      msg.sender,\n      false);\n      }\n\n  function destroy() public {\n    // Make sure the function is being called by the contract deployer\n    require(msg.sender == deployer);\n    // Remove the contract from the blockchain, return any ether to the deployer\n    selfdestruct(msg.sender);\n  }\n\n}",
  "sourcePath": "/Users/chris/lighthouse/ETHRent/contracts/Marketplace.sol",
  "compiler": {
    "name": "solc",
    "version": "0.5.12+commit.7709ece9.Emscripten.clang"
  },
  "schemaVersion": "3.0.19",
  "updatedAt": "2020-01-09T21:13:30.847Z",
  "networkType": "ethereum",
  "devdoc": {
    "methods": {}
  },
  "userdoc": {
    "methods": {}
  }
}