{
  "contractName": "Marketplace",
  "abi": [
    {
      "constant": true,
      "inputs": [],
      "name": "name",
      "outputs": [
        {
          "name": "",
          "type": "string"
        }
      ],
      "payable": false,
      "stateMutability": "view",
      "type": "function",
      "signature": "0x06fdde03"
    },
    {
      "constant": true,
      "inputs": [
        {
          "name": "",
          "type": "uint256"
        }
      ],
      "name": "products",
      "outputs": [
        {
          "name": "id",
          "type": "uint256"
        },
        {
          "name": "name",
          "type": "string"
        },
        {
          "name": "rentalDeposit",
          "type": "uint256"
        },
        {
          "name": "rentalFee",
          "type": "uint256"
        },
        {
          "name": "owner",
          "type": "address"
        },
        {
          "name": "custodian",
          "type": "address"
        },
        {
          "name": "rentalStart",
          "type": "uint256"
        },
        {
          "name": "rented",
          "type": "bool"
        }
      ],
      "payable": false,
      "stateMutability": "view",
      "type": "function",
      "signature": "0x7acc0b20"
    },
    {
      "constant": true,
      "inputs": [],
      "name": "productCount",
      "outputs": [
        {
          "name": "",
          "type": "uint256"
        }
      ],
      "payable": false,
      "stateMutability": "view",
      "type": "function",
      "signature": "0xe0f6ef87"
    },
    {
      "inputs": [],
      "payable": false,
      "stateMutability": "nonpayable",
      "type": "constructor",
      "signature": "constructor"
    },
    {
      "anonymous": false,
      "inputs": [
        {
          "indexed": false,
          "name": "id",
          "type": "uint256"
        },
        {
          "indexed": false,
          "name": "name",
          "type": "string"
        },
        {
          "indexed": false,
          "name": "rentalDeposit",
          "type": "uint256"
        },
        {
          "indexed": false,
          "name": "rentalFee",
          "type": "uint256"
        },
        {
          "indexed": false,
          "name": "owner",
          "type": "address"
        },
        {
          "indexed": false,
          "name": "rented",
          "type": "bool"
        }
      ],
      "name": "ProductCreated",
      "type": "event",
      "signature": "0x84a86ace0fd8dc64683a8ea9bbee0091c62410a7cdb1c3d84e2a7bc5c420dc7a"
    },
    {
      "anonymous": false,
      "inputs": [
        {
          "indexed": false,
          "name": "id",
          "type": "uint256"
        },
        {
          "indexed": false,
          "name": "name",
          "type": "string"
        },
        {
          "indexed": false,
          "name": "rentalDeposit",
          "type": "uint256"
        },
        {
          "indexed": false,
          "name": "rentalFee",
          "type": "uint256"
        },
        {
          "indexed": false,
          "name": "owner",
          "type": "address"
        },
        {
          "indexed": false,
          "name": "custodian",
          "type": "address"
        },
        {
          "indexed": false,
          "name": "rentalStart",
          "type": "uint256"
        },
        {
          "indexed": false,
          "name": "rented",
          "type": "bool"
        }
      ],
      "name": "ProductRented",
      "type": "event",
      "signature": "0xec1cd7035a07e53aa480afdd728e41465b0105ea2f0885bda2dd9e1d54f77337"
    },
    {
      "anonymous": false,
      "inputs": [
        {
          "indexed": false,
          "name": "id",
          "type": "uint256"
        },
        {
          "indexed": false,
          "name": "name",
          "type": "string"
        },
        {
          "indexed": false,
          "name": "rentalDeposit",
          "type": "uint256"
        },
        {
          "indexed": false,
          "name": "rentalCost",
          "type": "uint256"
        },
        {
          "indexed": false,
          "name": "owner",
          "type": "address"
        },
        {
          "indexed": false,
          "name": "borrower",
          "type": "address"
        },
        {
          "indexed": false,
          "name": "custodian",
          "type": "address"
        },
        {
          "indexed": false,
          "name": "rentalDays",
          "type": "uint256"
        },
        {
          "indexed": false,
          "name": "rented",
          "type": "bool"
        }
      ],
      "name": "ProductReturned",
      "type": "event",
      "signature": "0x047d6b10660634697dfa950f84eb4360ef9ddbf01e053c67a4d94feae84e765e"
    },
    {
      "anonymous": false,
      "inputs": [
        {
          "indexed": false,
          "name": "id",
          "type": "uint256"
        },
        {
          "indexed": false,
          "name": "name",
          "type": "string"
        },
        {
          "indexed": false,
          "name": "owner",
          "type": "address"
        },
        {
          "indexed": false,
          "name": "custodian",
          "type": "address"
        },
        {
          "indexed": false,
          "name": "rented",
          "type": "bool"
        }
      ],
      "name": "ProductDeleted",
      "type": "event",
      "signature": "0xf9e6dea644dccaca9e43e3123143e9856ebd15cb6b1b72e5a12f0c93f0fc5a9e"
    },
    {
      "constant": false,
      "inputs": [
        {
          "name": "_name",
          "type": "string"
        },
        {
          "name": "_rentalDeposit",
          "type": "uint256"
        },
        {
          "name": "_rentalFee",
          "type": "uint256"
        }
      ],
      "name": "createProduct",
      "outputs": [],
      "payable": false,
      "stateMutability": "nonpayable",
      "type": "function",
      "signature": "0x7bf12b1c"
    },
    {
      "constant": false,
      "inputs": [
        {
          "name": "_id",
          "type": "uint256"
        }
      ],
      "name": "rentProduct",
      "outputs": [],
      "payable": true,
      "stateMutability": "payable",
      "type": "function",
      "signature": "0xf4afd3b7"
    },
    {
      "constant": false,
      "inputs": [
        {
          "name": "_id",
          "type": "uint256"
        }
      ],
      "name": "returnProduct",
      "outputs": [],
      "payable": true,
      "stateMutability": "payable",
      "type": "function",
      "signature": "0x131e407d"
    },
    {
      "constant": false,
      "inputs": [
        {
          "name": "_id",
          "type": "uint256"
        }
      ],
      "name": "deleteProduct",
      "outputs": [],
      "payable": false,
      "stateMutability": "nonpayable",
      "type": "function",
      "signature": "0xed90c7b7"
    },
    {
      "constant": false,
      "inputs": [],
      "name": "destroy",
      "outputs": [],
      "payable": false,
      "stateMutability": "nonpayable",
      "type": "function",
      "signature": "0x83197ef0"
    }
  ],
  "bytecode": "0x608060405260006002553480156200001657600080fd5b506040805190810160405280600c81526020017f45544852656e74204461707000000000000000000000000000000000000000008152506000908051906020019062000064929190620000ac565b5033600160006101000a81548173ffffffffffffffffffffffffffffffffffffffff021916908373ffffffffffffffffffffffffffffffffffffffff1602179055506200015b565b828054600181600116156101000203166002900490600052602060002090601f016020900481019282601f10620000ef57805160ff191683800117855562000120565b8280016001018555821562000120579182015b828111156200011f57825182559160200191906001019062000102565b5b5090506200012f919062000133565b5090565b6200015891905b80821115620001545760008160009055506001016200013a565b5090565b90565b6119d5806200016b6000396000f3fe60806040526004361061008e576000357c0100000000000000000000000000000000000000000000000000000000900463ffffffff16806306fdde0314610093578063131e407d146101235780637acc0b20146101515780637bf12b1c1461029257806383197ef01461036e578063e0f6ef8714610385578063ed90c7b7146103b0578063f4afd3b7146103eb575b600080fd5b34801561009f57600080fd5b506100a8610419565b6040518080602001828103825283818151815260200191508051906020019080838360005b838110156100e85780820151818401526020810190506100cd565b50505050905090810190601f1680156101155780820380516001836020036101000a031916815260200191505b509250505060405180910390f35b61014f6004803603602081101561013957600080fd5b81019080803590602001909291905050506104b7565b005b34801561015d57600080fd5b5061018a6004803603602081101561017457600080fd5b8101908080359060200190929190505050610a8b565b60405180898152602001806020018881526020018781526020018673ffffffffffffffffffffffffffffffffffffffff1673ffffffffffffffffffffffffffffffffffffffff1681526020018573ffffffffffffffffffffffffffffffffffffffff1673ffffffffffffffffffffffffffffffffffffffff16815260200184815260200183151515158152602001828103825289818151815260200191508051906020019080838360005b83811015610250578082015181840152602081019050610235565b50505050905090810190601f16801561027d5780820380516001836020036101000a031916815260200191505b50995050505050505050505060405180910390f35b34801561029e57600080fd5b5061036c600480360360608110156102b557600080fd5b81019080803590602001906401000000008111156102d257600080fd5b8201836020820111156102e457600080fd5b8035906020019184600183028401116401000000008311171561030657600080fd5b91908080601f016020809104026020016040519081016040528093929190818152602001838380828437600081840152601f19601f8201169050808301925050505050505091929192908035906020019092919080359060200190929190505050610bb8565b005b34801561037a57600080fd5b50610383610e6c565b005b34801561039157600080fd5b5061039a610ee1565b6040518082815260200191505060405180910390f35b3480156103bc57600080fd5b506103e9600480360360208110156103d357600080fd5b8101908080359060200190929190505050610ee7565b005b6104176004803603602081101561040157600080fd5b8101908080359060200190929190505050611390565b005b60008054600181600116156101000203166002900480601f0160208091040260200160405190810160405280929190818152602001828054600181600116156101000203166002900480156104af5780601f10610484576101008083540402835291602001916104af565b820191906000526020600020905b81548152906001019060200180831161049257829003601f168201915b505050505081565b6104bf611890565b60036000838152602001908152602001600020610100604051908101604052908160008201548152602001600182018054600181600116156101000203166002900480601f0160208091040260200160405190810160405280929190818152602001828054600181600116156101000203166002900480156105825780601f1061055757610100808354040283529160200191610582565b820191906000526020600020905b81548152906001019060200180831161056557829003601f168201915b5050505050815260200160028201548152602001600382015481526020016004820160009054906101000a900473ffffffffffffffffffffffffffffffffffffffff1673ffffffffffffffffffffffffffffffffffffffff1673ffffffffffffffffffffffffffffffffffffffff1681526020016005820160009054906101000a900473ffffffffffffffffffffffffffffffffffffffff1673ffffffffffffffffffffffffffffffffffffffff1673ffffffffffffffffffffffffffffffffffffffff168152602001600682015481526020016007820160009054906101000a900460ff161515151581525050905060008160800151905060008260a0015190506000836000015111801561069e5750600254836000015111155b15156106a957600080fd5b8260e0015115156106b957600080fd5b8073ffffffffffffffffffffffffffffffffffffffff168273ffffffffffffffffffffffffffffffffffffffff16141515156106f457600080fd5b60004290506000620151808560c00151830381151561070f57fe5b069050600085606001518202905085608001518660a0019073ffffffffffffffffffffffffffffffffffffffff16908173ffffffffffffffffffffffffffffffffffffffff168152505060008660e001901515908115158152505085600360008981526020019081526020016000206000820151816000015560208201518160010190805190602001906107a4929190611904565b50604082015181600201556060820151816003015560808201518160040160006101000a81548173ffffffffffffffffffffffffffffffffffffffff021916908373ffffffffffffffffffffffffffffffffffffffff16021790555060a08201518160050160006101000a81548173ffffffffffffffffffffffffffffffffffffffff021916908373ffffffffffffffffffffffffffffffffffffffff16021790555060c0820151816006015560e08201518160070160006101000a81548160ff0219169083151502179055509050508473ffffffffffffffffffffffffffffffffffffffff166108fc829081150290604051600060405180830381858888f193505050501580156108ba573d6000803e3d6000fd5b508373ffffffffffffffffffffffffffffffffffffffff166108fc828860400151039081150290604051600060405180830381858888f19350505050158015610907573d6000803e3d6000fd5b507f047d6b10660634697dfa950f84eb4360ef9ddbf01e053c67a4d94feae84e765e60025487602001518860400151848a60800151898c60a00151898e60e00151604051808a8152602001806020018981526020018881526020018773ffffffffffffffffffffffffffffffffffffffff1673ffffffffffffffffffffffffffffffffffffffff1681526020018673ffffffffffffffffffffffffffffffffffffffff1673ffffffffffffffffffffffffffffffffffffffff1681526020018573ffffffffffffffffffffffffffffffffffffffff1673ffffffffffffffffffffffffffffffffffffffff1681526020018481526020018315151515815260200182810382528a818151815260200191508051906020019080838360005b83811015610a40578082015181840152602081019050610a25565b50505050905090810190601f168015610a6d5780820380516001836020036101000a031916815260200191505b509a505050505050505050505060405180910390a150505050505050565b6003602052806000526040600020600091509050806000015490806001018054600181600116156101000203166002900480601f016020809104026020016040519081016040528092919081815260200182805460018160011615610100020316600290048015610b3d5780601f10610b1257610100808354040283529160200191610b3d565b820191906000526020600020905b815481529060010190602001808311610b2057829003601f168201915b5050505050908060020154908060030154908060040160009054906101000a900473ffffffffffffffffffffffffffffffffffffffff16908060050160009054906101000a900473ffffffffffffffffffffffffffffffffffffffff16908060060154908060070160009054906101000a900460ff16905088565b60008351111515610bc857600080fd5b600082111515610bd757600080fd5b600081111515610be657600080fd5b6002600081548092919060010191905055506101006040519081016040528060025481526020018481526020018381526020018281526020013373ffffffffffffffffffffffffffffffffffffffff1681526020013373ffffffffffffffffffffffffffffffffffffffff1681526020016000815260200160001515815250600360006002548152602001908152602001600020600082015181600001556020820151816001019080519060200190610ca0929190611904565b50604082015181600201556060820151816003015560808201518160040160006101000a81548173ffffffffffffffffffffffffffffffffffffffff021916908373ffffffffffffffffffffffffffffffffffffffff16021790555060a08201518160050160006101000a81548173ffffffffffffffffffffffffffffffffffffffff021916908373ffffffffffffffffffffffffffffffffffffffff16021790555060c0820151816006015560e08201518160070160006101000a81548160ff0219169083151502179055509050507f84a86ace0fd8dc64683a8ea9bbee0091c62410a7cdb1c3d84e2a7bc5c420dc7a60025484848433600060405180878152602001806020018681526020018581526020018473ffffffffffffffffffffffffffffffffffffffff1673ffffffffffffffffffffffffffffffffffffffff16815260200183151515158152602001828103825287818151815260200191508051906020019080838360005b83811015610e28578082015181840152602081019050610e0d565b50505050905090810190601f168015610e555780820380516001836020036101000a031916815260200191505b5097505050505050505060405180910390a1505050565b600160009054906101000a900473ffffffffffffffffffffffffffffffffffffffff1673ffffffffffffffffffffffffffffffffffffffff163373ffffffffffffffffffffffffffffffffffffffff16141515610ec857600080fd5b3373ffffffffffffffffffffffffffffffffffffffff16ff5b60025481565b610eef611890565b60036000838152602001908152602001600020610100604051908101604052908160008201548152602001600182018054600181600116156101000203166002900480601f016020809104026020016040519081016040528092919081815260200182805460018160011615610100020316600290048015610fb25780601f10610f8757610100808354040283529160200191610fb2565b820191906000526020600020905b815481529060010190602001808311610f9557829003601f168201915b5050505050815260200160028201548152602001600382015481526020016004820160009054906101000a900473ffffffffffffffffffffffffffffffffffffffff1673ffffffffffffffffffffffffffffffffffffffff1673ffffffffffffffffffffffffffffffffffffffff1681526020016005820160009054906101000a900473ffffffffffffffffffffffffffffffffffffffff1673ffffffffffffffffffffffffffffffffffffffff1673ffffffffffffffffffffffffffffffffffffffff168152602001600682015481526020016007820160009054906101000a900460ff1615151515815250509050600081600001511180156110bc5750600254816000015111155b15156110c757600080fd5b3373ffffffffffffffffffffffffffffffffffffffff16816080015173ffffffffffffffffffffffffffffffffffffffff1614151561110557600080fd5b806080015173ffffffffffffffffffffffffffffffffffffffff168160a0015173ffffffffffffffffffffffffffffffffffffffff1614151561114757600080fd5b60018160e00190151590811515815250508060036000848152602001908152602001600020600082015181600001556020820151816001019080519060200190611192929190611904565b50604082015181600201556060820151816003015560808201518160040160006101000a81548173ffffffffffffffffffffffffffffffffffffffff021916908373ffffffffffffffffffffffffffffffffffffffff16021790555060a08201518160050160006101000a81548173ffffffffffffffffffffffffffffffffffffffff021916908373ffffffffffffffffffffffffffffffffffffffff16021790555060c0820151816006015560e08201518160070160006101000a81548160ff0219169083151502179055509050507ff9e6dea644dccaca9e43e3123143e9856ebd15cb6b1b72e5a12f0c93f0fc5a9e600254826020015183608001518460a001518560e0015160405180868152602001806020018573ffffffffffffffffffffffffffffffffffffffff1673ffffffffffffffffffffffffffffffffffffffff1681526020018473ffffffffffffffffffffffffffffffffffffffff1673ffffffffffffffffffffffffffffffffffffffff16815260200183151515158152602001828103825286818151815260200191508051906020019080838360005b8381101561134e578082015181840152602081019050611333565b50505050905090810190601f16801561137b5780820380516001836020036101000a031916815260200191505b50965050505050505060405180910390a15050565b611398611890565b60036000838152602001908152602001600020610100604051908101604052908160008201548152602001600182018054600181600116156101000203166002900480601f01602080910402602001604051908101604052809291908181526020018280546001816001161561010002031660029004801561145b5780601f106114305761010080835404028352916020019161145b565b820191906000526020600020905b81548152906001019060200180831161143e57829003601f168201915b5050505050815260200160028201548152602001600382015481526020016004820160009054906101000a900473ffffffffffffffffffffffffffffffffffffffff1673ffffffffffffffffffffffffffffffffffffffff1673ffffffffffffffffffffffffffffffffffffffff1681526020016005820160009054906101000a900473ffffffffffffffffffffffffffffffffffffffff1673ffffffffffffffffffffffffffffffffffffffff1673ffffffffffffffffffffffffffffffffffffffff168152602001600682015481526020016007820160009054906101000a900460ff16151515158152505090506000816080015190506000826000015111801561156e5750600254826000015111155b151561157957600080fd5b8160400151341015151561158c57600080fd5b8160e0015115151561159d57600080fd5b3373ffffffffffffffffffffffffffffffffffffffff168173ffffffffffffffffffffffffffffffffffffffff16141515156115d857600080fd5b338260a0019073ffffffffffffffffffffffffffffffffffffffff16908173ffffffffffffffffffffffffffffffffffffffff1681525050428260c001818152505060006202a3008360c0015101905060018360e00190151590811515815250508260036000868152602001908152602001600020600082015181600001556020820151816001019080519060200190611673929190611904565b50604082015181600201556060820151816003015560808201518160040160006101000a81548173ffffffffffffffffffffffffffffffffffffffff021916908373ffffffffffffffffffffffffffffffffffffffff16021790555060a08201518160050160006101000a81548173ffffffffffffffffffffffffffffffffffffffff021916908373ffffffffffffffffffffffffffffffffffffffff16021790555060c0820151816006015560e08201518160070160006101000a81548160ff0219169083151502179055509050507fec1cd7035a07e53aa480afdd728e41465b0105ea2f0885bda2dd9e1d54f773376002548460200151856040015186606001518760800151338960c00151600160405180898152602001806020018881526020018781526020018673ffffffffffffffffffffffffffffffffffffffff1673ffffffffffffffffffffffffffffffffffffffff1681526020018573ffffffffffffffffffffffffffffffffffffffff1673ffffffffffffffffffffffffffffffffffffffff16815260200184815260200183151515158152602001828103825289818151815260200191508051906020019080838360005b8381101561184957808201518184015260208101905061182e565b50505050905090810190601f1680156118765780820380516001836020036101000a031916815260200191505b50995050505050505050505060405180910390a150505050565b6101006040519081016040528060008152602001606081526020016000815260200160008152602001600073ffffffffffffffffffffffffffffffffffffffff168152602001600073ffffffffffffffffffffffffffffffffffffffff168152602001600081526020016000151581525090565b828054600181600116156101000203166002900490600052602060002090601f016020900481019282601f1061194557805160ff1916838001178555611973565b82800160010185558215611973579182015b82811115611972578251825591602001919060010190611957565b5b5090506119809190611984565b5090565b6119a691905b808211156119a257600081600090555060010161198a565b5090565b9056fea165627a7a723058206f434522086aafbcf2724ec2fdfac1af5f095788591460b96791f3fc78486ecb0029",
  "source": "pragma solidity >=0.4.21 <0.7.0;\n\ncontract Marketplace {\n  string public name;\n  address deployer;\n  uint public productCount = 0;\n  mapping(uint => Product) public products;\n  struct Product {\n    uint id;\n    string name;\n    uint rentalDeposit;\n    uint rentalFee;\n    address payable owner;\n    address payable custodian;\n    uint rentalStart;\n    bool rented;\n  }\n  event ProductCreated(\n    uint id,\n    string name,\n    uint rentalDeposit,\n    uint rentalFee,\n    address payable owner,\n    bool rented\n  );\n  event ProductRented(\n    uint id,\n    string name,\n    uint rentalDeposit,\n    uint rentalFee,\n    address owner,\n    address custodian,\n    uint rentalStart,\n    bool rented\n  );\n  event ProductReturned(\n    uint id,\n    string name,\n    uint rentalDeposit,\n    uint rentalCost,\n    address payable owner,\n    address payable borrower,\n    address custodian,\n    uint rentalDays,\n    bool rented\n  );\n  event ProductDeleted(\n    uint id,\n    string name,\n    address owner,\n    address custodian,\n    bool rented\n  );\n\n  constructor() public {\n    name = \"ETHRent Dapp\";\n    deployer = msg.sender;\n  }\n\n  function createProduct(string memory _name, uint _rentalDeposit, uint _rentalFee) public {\n    // Require a valid name\n    require(bytes(_name).length > 0);\n    // Require a valid rental deposit\n    require(_rentalDeposit > 0);\n    // Require a valid rental fee\n    require(_rentalFee > 0);\n    // Increment product count\n    productCount ++;\n    // Create the product\n    products[productCount] = Product(productCount, _name, _rentalDeposit, _rentalFee, msg.sender, msg.sender, 0, false);\n    // Trigger an event\n    emit ProductCreated(\n      productCount,\n      _name,\n      _rentalDeposit,\n      _rentalFee,\n      msg.sender,\n      false);\n  }\n\n  function rentProduct(uint _id) public payable {\n    // Fetch the product\n    Product memory _product = products[_id];\n    // Fetch the owner\n    address payable _owner = _product.owner;\n    // Make sure the product has a valid id\n    require(_product.id > 0 && _product.id <= productCount);\n    // Require that there is enough Ether in the transaction\n    require(msg.value >= _product.rentalDeposit);\n    // Require that the product has not been rented already\n    require(!_product.rented);\n    // Require that the borrower is not the owner\n    require(_owner != msg.sender);\n    // Transfer responsibility to the borrower\n    _product.custodian = msg.sender;\n    // Set time when rental starts\n    _product.rentalStart = now;\n    uint endTime;\n    endTime = _product.rentalStart + 2 days;\n    // Mark as rented\n    _product.rented = true;\n    // Update the product\n    products[_id] = _product;\n    // Trigger an event\n    emit ProductRented(\n      productCount,\n      _product.name,\n      _product.rentalDeposit,\n      _product.rentalFee,\n      _product.owner,\n      msg.sender,\n      _product.rentalStart,\n      true);\n  }\n\n  function returnProduct(uint _id) public payable {\n    // Fetch the product\n    Product memory _product = products[_id];\n    // Fetch the owner\n    address payable _owner = _product.owner;\n    // Fetch the borrower\n    address payable _borrower = _product.custodian;\n    // Make sure the product has a valid id\n    require(_product.id > 0 && _product.id <= productCount);\n    // Require that the product is currently rented\n    require(_product.rented);\n    // Require that the borrower is not the owner\n    require(_owner != _borrower);\n    // Determine rental period, and associated rental cost\n    uint endTime;\n    endTime = now;\n    uint rentalDays;\n    rentalDays = ((endTime - _product.rentalStart) % 86400);\n    // rentalDays = 2; // Hard code rentalDays for testing\n    uint rentalCost;\n    rentalCost = rentalDays * _product.rentalFee;\n    // Transfer responsibility back to owner\n    _product.custodian = _product.owner;\n    // Mark as rented\n    _product.rented = false;\n    // Update the product\n    products[_id] = _product;\n    // Pay the owner by sending them Ether\n    address(_owner).transfer(rentalCost);\n    // Return remaining deposit to the borrower\n    address(_borrower).transfer(_product.rentalDeposit - rentalCost);\n    // Trigger an event\n    emit ProductReturned(\n      productCount,\n      _product.name,\n      _product.rentalDeposit,\n      rentalCost,\n      _product.owner,\n      _borrower,\n      _product.custodian,\n      rentalDays,\n      _product.rented);\n  }\n\n  function deleteProduct(uint _id) public {\n    // Fetch the product\n    Product memory _product = products[_id];\n    // Make sure the product has a valid id\n    require(_product.id > 0 && _product.id <= productCount);\n    // Make sure only the product owner can delete a product\n    require(_product.owner == msg.sender);\n    // Make sure the owner is currently the custodian of the product\n    require(_product.custodian == _product.owner);\n    // Mark as rented (i.e. unavailable to rent)\n    _product.rented = true;\n    // Update the product\n    products[_id] = _product;\n    // Trigger an event\n    emit ProductDeleted(\n      productCount,\n      _product.name,\n      _product.owner,\n      _product.custodian,\n      _product.rented);\n  }\n\n  function destroy() public {\n    // Make sure the function is being called by the contract deployer\n    require(msg.sender == deployer);\n    // Remove the contract from the blockchain, return any ether to the deployer\n    selfdestruct(msg.sender);\n  }\n\n}",
  "sourcePath": "/Users/zhabskyi/lighthouse/ETHRent/contracts/Marketplace.sol",
  "compiler": {
    "name": "solc",
    "version": "0.5.0+commit.1d4f565a.Emscripten.clang"
  },
  "schemaVersion": "3.0.2",
  "updatedAt": "2020-01-06T20:10:08.758Z",
  "devdoc": {
    "methods": {}
  },
  "userdoc": {
    "methods": {}
  }
}