{
  "contractName": "Marketplace",
  "abi": [
    {
      "constant": true,
      "inputs": [],
      "name": "name",
      "outputs": [
        {
          "name": "",
          "type": "string"
        }
      ],
      "payable": false,
      "stateMutability": "view",
      "type": "function",
      "signature": "0x06fdde03"
    },
    {
      "constant": true,
      "inputs": [
        {
          "name": "",
          "type": "uint256"
        }
      ],
      "name": "products",
      "outputs": [
        {
          "name": "id",
          "type": "uint256"
        },
        {
          "name": "name",
          "type": "string"
        },
        {
          "name": "description",
          "type": "string"
        },
        {
          "name": "rentalDeposit",
          "type": "uint256"
        },
        {
          "name": "rentalFee",
          "type": "uint256"
        },
        {
          "name": "owner",
          "type": "address"
        },
        {
          "name": "custodian",
          "type": "address"
        },
        {
          "name": "rentalStart",
          "type": "uint256"
        },
        {
          "name": "rented",
          "type": "bool"
        }
      ],
      "payable": false,
      "stateMutability": "view",
      "type": "function",
      "signature": "0x7acc0b20"
    },
    {
      "constant": true,
      "inputs": [],
      "name": "productCount",
      "outputs": [
        {
          "name": "",
          "type": "uint256"
        }
      ],
      "payable": false,
      "stateMutability": "view",
      "type": "function",
      "signature": "0xe0f6ef87"
    },
    {
      "inputs": [],
      "payable": false,
      "stateMutability": "nonpayable",
      "type": "constructor",
      "signature": "constructor"
    },
    {
      "anonymous": false,
      "inputs": [
        {
          "indexed": false,
          "name": "id",
          "type": "uint256"
        },
        {
          "indexed": false,
          "name": "name",
          "type": "string"
        },
        {
          "indexed": false,
          "name": "description",
          "type": "string"
        },
        {
          "indexed": false,
          "name": "rentalDeposit",
          "type": "uint256"
        },
        {
          "indexed": false,
          "name": "rentalFee",
          "type": "uint256"
        },
        {
          "indexed": false,
          "name": "owner",
          "type": "address"
        },
        {
          "indexed": false,
          "name": "rented",
          "type": "bool"
        }
      ],
      "name": "ProductCreated",
      "type": "event",
      "signature": "0x8c8a646aa26b88fd0905c2963f0d4c8b43dd744cd428f633fbaba3c629d4214d"
    },
    {
      "anonymous": false,
      "inputs": [
        {
          "indexed": false,
          "name": "id",
          "type": "uint256"
        },
        {
          "indexed": false,
          "name": "name",
          "type": "string"
        },
        {
          "indexed": false,
          "name": "rentalDeposit",
          "type": "uint256"
        },
        {
          "indexed": false,
          "name": "rentalFee",
          "type": "uint256"
        },
        {
          "indexed": false,
          "name": "owner",
          "type": "address"
        },
        {
          "indexed": false,
          "name": "custodian",
          "type": "address"
        },
        {
          "indexed": false,
          "name": "rentalStart",
          "type": "uint256"
        },
        {
          "indexed": false,
          "name": "rented",
          "type": "bool"
        }
      ],
      "name": "ProductRented",
      "type": "event",
      "signature": "0xec1cd7035a07e53aa480afdd728e41465b0105ea2f0885bda2dd9e1d54f77337"
    },
    {
      "anonymous": false,
      "inputs": [
        {
          "indexed": false,
          "name": "id",
          "type": "uint256"
        },
        {
          "indexed": false,
          "name": "name",
          "type": "string"
        },
        {
          "indexed": false,
          "name": "rentalDeposit",
          "type": "uint256"
        },
        {
          "indexed": false,
          "name": "rentalCost",
          "type": "uint256"
        },
        {
          "indexed": false,
          "name": "owner",
          "type": "address"
        },
        {
          "indexed": false,
          "name": "borrower",
          "type": "address"
        },
        {
          "indexed": false,
          "name": "custodian",
          "type": "address"
        },
        {
          "indexed": false,
          "name": "rentalDays",
          "type": "uint256"
        },
        {
          "indexed": false,
          "name": "rented",
          "type": "bool"
        }
      ],
      "name": "ProductReturned",
      "type": "event",
      "signature": "0x047d6b10660634697dfa950f84eb4360ef9ddbf01e053c67a4d94feae84e765e"
    },
    {
      "anonymous": false,
      "inputs": [
        {
          "indexed": false,
          "name": "id",
          "type": "uint256"
        },
        {
          "indexed": false,
          "name": "name",
          "type": "string"
        },
        {
          "indexed": false,
          "name": "owner",
          "type": "address"
        },
        {
          "indexed": false,
          "name": "custodian",
          "type": "address"
        },
        {
          "indexed": false,
          "name": "rented",
          "type": "bool"
        }
      ],
      "name": "ProductDeleted",
      "type": "event",
      "signature": "0xf9e6dea644dccaca9e43e3123143e9856ebd15cb6b1b72e5a12f0c93f0fc5a9e"
    },
    {
      "anonymous": false,
      "inputs": [
        {
          "indexed": false,
          "name": "id",
          "type": "uint256"
        },
        {
          "indexed": false,
          "name": "name",
          "type": "string"
        },
        {
          "indexed": false,
          "name": "description",
          "type": "string"
        },
        {
          "indexed": false,
          "name": "rentalDeposit",
          "type": "uint256"
        },
        {
          "indexed": false,
          "name": "rentalFee",
          "type": "uint256"
        },
        {
          "indexed": false,
          "name": "owner",
          "type": "address"
        },
        {
          "indexed": false,
          "name": "rented",
          "type": "bool"
        }
      ],
      "name": "ProductEdited",
      "type": "event",
      "signature": "0x4395962379538081681c437017fea0bacce34b2ace48a53f58302895bca20a8b"
    },
    {
      "constant": false,
      "inputs": [
        {
          "name": "_name",
          "type": "string"
        },
        {
          "name": "_description",
          "type": "string"
        },
        {
          "name": "_rentalDeposit",
          "type": "uint256"
        },
        {
          "name": "_rentalFee",
          "type": "uint256"
        }
      ],
      "name": "createProduct",
      "outputs": [],
      "payable": false,
      "stateMutability": "nonpayable",
      "type": "function",
      "signature": "0x90d16cba"
    },
    {
      "constant": false,
      "inputs": [
        {
          "name": "_id",
          "type": "uint256"
        }
      ],
      "name": "rentProduct",
      "outputs": [],
      "payable": true,
      "stateMutability": "payable",
      "type": "function",
      "signature": "0xf4afd3b7"
    },
    {
      "constant": false,
      "inputs": [
        {
          "name": "_id",
          "type": "uint256"
        },
        {
          "name": "_rentalDays",
          "type": "uint256"
        }
      ],
      "name": "returnProduct",
      "outputs": [],
      "payable": true,
      "stateMutability": "payable",
      "type": "function",
      "signature": "0xca47b8c2"
    },
    {
      "constant": false,
      "inputs": [
        {
          "name": "_id",
          "type": "uint256"
        }
      ],
      "name": "deleteProduct",
      "outputs": [],
      "payable": false,
      "stateMutability": "nonpayable",
      "type": "function",
      "signature": "0xed90c7b7"
    },
    {
      "constant": false,
      "inputs": [
        {
          "name": "_id",
          "type": "uint256"
        },
        {
          "name": "_name",
          "type": "string"
        },
        {
          "name": "_description",
          "type": "string"
        },
        {
          "name": "_rentalDeposit",
          "type": "uint256"
        },
        {
          "name": "_rentalFee",
          "type": "uint256"
        }
      ],
      "name": "editProduct",
      "outputs": [],
      "payable": false,
      "stateMutability": "nonpayable",
      "type": "function",
      "signature": "0xe3b96262"
    },
    {
      "constant": false,
      "inputs": [],
      "name": "destroy",
      "outputs": [],
      "payable": false,
      "stateMutability": "nonpayable",
      "type": "function",
      "signature": "0x83197ef0"
    }
  ],
  "bytecode": "0x608060405260006002553480156200001657600080fd5b506040805190810160405280600c81526020017f45544852656e74204461707000000000000000000000000000000000000000008152506000908051906020019062000064929190620000ac565b5033600160006101000a81548173ffffffffffffffffffffffffffffffffffffffff021916908373ffffffffffffffffffffffffffffffffffffffff1602179055506200015b565b828054600181600116156101000203166002900490600052602060002090601f016020900481019282601f10620000ef57805160ff191683800117855562000120565b8280016001018555821562000120579182015b828111156200011f57825182559160200191906001019062000102565b5b5090506200012f919062000133565b5090565b6200015891905b80821115620001545760008160009055506001016200013a565b5090565b90565b61258c806200016b6000396000f3fe608060405260043610610099576000357c0100000000000000000000000000000000000000000000000000000000900463ffffffff16806306fdde031461009e5780637acc0b201461012e57806383197ef0146102db57806390d16cba146102f2578063ca47b8c214610465578063e0f6ef871461049d578063e3b96262146104c8578063ed90c7b714610645578063f4afd3b714610680575b600080fd5b3480156100aa57600080fd5b506100b36106ae565b6040518080602001828103825283818151815260200191508051906020019080838360005b838110156100f35780820151818401526020810190506100d8565b50505050905090810190601f1680156101205780820380516001836020036101000a031916815260200191505b509250505060405180910390f35b34801561013a57600080fd5b506101676004803603602081101561015157600080fd5b810190808035906020019092919050505061074c565b604051808a815260200180602001806020018981526020018881526020018773ffffffffffffffffffffffffffffffffffffffff1673ffffffffffffffffffffffffffffffffffffffff1681526020018673ffffffffffffffffffffffffffffffffffffffff1673ffffffffffffffffffffffffffffffffffffffff1681526020018581526020018415151515815260200183810383528b818151815260200191508051906020019080838360005b83811015610231578082015181840152602081019050610216565b50505050905090810190601f16801561025e5780820380516001836020036101000a031916815260200191505b5083810382528a818151815260200191508051906020019080838360005b8381101561029757808201518184015260208101905061027c565b50505050905090810190601f1680156102c45780820380516001836020036101000a031916815260200191505b509b50505050505050505050505060405180910390f35b3480156102e757600080fd5b506102f0610917565b005b3480156102fe57600080fd5b506104636004803603608081101561031557600080fd5b810190808035906020019064010000000081111561033257600080fd5b82018360208201111561034457600080fd5b8035906020019184600183028401116401000000008311171561036657600080fd5b91908080601f016020809104026020016040519081016040528093929190818152602001838380828437600081840152601f19601f820116905080830192505050505050509192919290803590602001906401000000008111156103c957600080fd5b8201836020820111156103db57600080fd5b803590602001918460018302840111640100000000831117156103fd57600080fd5b91908080601f016020809104026020016040519081016040528093929190818152602001838380828437600081840152601f19601f820116905080830192505050505050509192919290803590602001909291908035906020019092919050505061098c565b005b61049b6004803603604081101561047b57600080fd5b810190808035906020019092919080359060200190929190505050610ce2565b005b3480156104a957600080fd5b506104b2611360565b6040518082815260200191505060405180910390f35b3480156104d457600080fd5b50610643600480360360a08110156104eb57600080fd5b81019080803590602001909291908035906020019064010000000081111561051257600080fd5b82018360208201111561052457600080fd5b8035906020019184600183028401116401000000008311171561054657600080fd5b91908080601f016020809104026020016040519081016040528093929190818152602001838380828437600081840152601f19601f820116905080830192505050505050509192919290803590602001906401000000008111156105a957600080fd5b8201836020820111156105bb57600080fd5b803590602001918460018302840111640100000000831117156105dd57600080fd5b91908080601f016020809104026020016040519081016040528093929190818152602001838380828437600081840152601f19601f8201169050808301925050505050505091929192908035906020019092919080359060200190929190505050611366565b005b34801561065157600080fd5b5061067e6004803603602081101561066857600080fd5b8101908080359060200190929190505050611922565b005b6106ac6004803603602081101561069657600080fd5b8101908080359060200190929190505050611e8d565b005b60008054600181600116156101000203166002900480601f0160208091040260200160405190810160405280929190818152602001828054600181600116156101000203166002900480156107445780601f1061071957610100808354040283529160200191610744565b820191906000526020600020905b81548152906001019060200180831161072757829003601f168201915b505050505081565b6003602052806000526040600020600091509050806000015490806001018054600181600116156101000203166002900480601f0160208091040260200160405190810160405280929190818152602001828054600181600116156101000203166002900480156107fe5780601f106107d3576101008083540402835291602001916107fe565b820191906000526020600020905b8154815290600101906020018083116107e157829003601f168201915b505050505090806002018054600181600116156101000203166002900480601f01602080910402602001604051908101604052809291908181526020018280546001816001161561010002031660029004801561089c5780601f106108715761010080835404028352916020019161089c565b820191906000526020600020905b81548152906001019060200180831161087f57829003601f168201915b5050505050908060030154908060040154908060050160009054906101000a900473ffffffffffffffffffffffffffffffffffffffff16908060060160009054906101000a900473ffffffffffffffffffffffffffffffffffffffff16908060070154908060080160009054906101000a900460ff16905089565b600160009054906101000a900473ffffffffffffffffffffffffffffffffffffffff1673ffffffffffffffffffffffffffffffffffffffff163373ffffffffffffffffffffffffffffffffffffffff1614151561097357600080fd5b3373ffffffffffffffffffffffffffffffffffffffff16ff5b6000845111151561099c57600080fd5b600083511115156109ac57600080fd5b6000821115156109bb57600080fd5b6000811115156109ca57600080fd5b6002600081548092919060010191905055506101206040519081016040528060025481526020018581526020018481526020018381526020018281526020013373ffffffffffffffffffffffffffffffffffffffff1681526020013373ffffffffffffffffffffffffffffffffffffffff1681526020016000815260200160001515815250600360006002548152602001908152602001600020600082015181600001556020820151816001019080519060200190610a8a929190612440565b506040820151816002019080519060200190610aa7929190612440565b50606082015181600301556080820151816004015560a08201518160050160006101000a81548173ffffffffffffffffffffffffffffffffffffffff021916908373ffffffffffffffffffffffffffffffffffffffff16021790555060c08201518160060160006101000a81548173ffffffffffffffffffffffffffffffffffffffff021916908373ffffffffffffffffffffffffffffffffffffffff16021790555060e082015181600701556101008201518160080160006101000a81548160ff0219169083151502179055509050507f8c8a646aa26b88fd0905c2963f0d4c8b43dd744cd428f633fbaba3c629d4214d600254858585853360006040518088815260200180602001806020018781526020018681526020018573ffffffffffffffffffffffffffffffffffffffff1673ffffffffffffffffffffffffffffffffffffffff16815260200184151515158152602001838103835289818151815260200191508051906020019080838360005b83811015610c35578082015181840152602081019050610c1a565b50505050905090810190601f168015610c625780820380516001836020036101000a031916815260200191505b50838103825288818151815260200191508051906020019080838360005b83811015610c9b578082015181840152602081019050610c80565b50505050905090810190601f168015610cc85780820380516001836020036101000a031916815260200191505b50995050505050505050505060405180910390a150505050565b610cea6124c0565b60036000848152602001908152602001600020610120604051908101604052908160008201548152602001600182018054600181600116156101000203166002900480601f016020809104026020016040519081016040528092919081815260200182805460018160011615610100020316600290048015610dad5780601f10610d8257610100808354040283529160200191610dad565b820191906000526020600020905b815481529060010190602001808311610d9057829003601f168201915b50505050508152602001600282018054600181600116156101000203166002900480601f016020809104026020016040519081016040528092919081815260200182805460018160011615610100020316600290048015610e4f5780601f10610e2457610100808354040283529160200191610e4f565b820191906000526020600020905b815481529060010190602001808311610e3257829003601f168201915b5050505050815260200160038201548152602001600482015481526020016005820160009054906101000a900473ffffffffffffffffffffffffffffffffffffffff1673ffffffffffffffffffffffffffffffffffffffff1673ffffffffffffffffffffffffffffffffffffffff1681526020016006820160009054906101000a900473ffffffffffffffffffffffffffffffffffffffff1673ffffffffffffffffffffffffffffffffffffffff1673ffffffffffffffffffffffffffffffffffffffff168152602001600782015481526020016008820160009054906101000a900460ff161515151581525050905060008160a00151905060008260c00151905060008360000151118015610f6b5750600254836000015111155b1515610f7657600080fd5b8261010001511515610f8757600080fd5b8073ffffffffffffffffffffffffffffffffffffffff168273ffffffffffffffffffffffffffffffffffffffff1614151515610fc257600080fd5b600042905060008460800151860290508460a001518560c0019073ffffffffffffffffffffffffffffffffffffffff16908173ffffffffffffffffffffffffffffffffffffffff1681525050600085610100019015159081151581525050846003600089815260200190815260200160002060008201518160000155602082015181600101908051906020019061105a929190612440565b506040820151816002019080519060200190611077929190612440565b50606082015181600301556080820151816004015560a08201518160050160006101000a81548173ffffffffffffffffffffffffffffffffffffffff021916908373ffffffffffffffffffffffffffffffffffffffff16021790555060c08201518160060160006101000a81548173ffffffffffffffffffffffffffffffffffffffff021916908373ffffffffffffffffffffffffffffffffffffffff16021790555060e082015181600701556101008201518160080160006101000a81548160ff0219169083151502179055509050508373ffffffffffffffffffffffffffffffffffffffff166108fc829081150290604051600060405180830381858888f1935050505015801561118e573d6000803e3d6000fd5b508273ffffffffffffffffffffffffffffffffffffffff166108fc828760600151039081150290604051600060405180830381858888f193505050501580156111db573d6000803e3d6000fd5b507f047d6b10660634697dfa950f84eb4360ef9ddbf01e053c67a4d94feae84e765e60025486602001518760600151848960a00151888b60c001518d8d6101000151604051808a8152602001806020018981526020018881526020018773ffffffffffffffffffffffffffffffffffffffff1673ffffffffffffffffffffffffffffffffffffffff1681526020018673ffffffffffffffffffffffffffffffffffffffff1673ffffffffffffffffffffffffffffffffffffffff1681526020018573ffffffffffffffffffffffffffffffffffffffff1673ffffffffffffffffffffffffffffffffffffffff1681526020018481526020018315151515815260200182810382528a818151815260200191508051906020019080838360005b838110156113155780820151818401526020810190506112fa565b50505050905090810190601f1680156113425780820380516001836020036101000a031916815260200191505b509a505050505050505050505060405180910390a150505050505050565b60025481565b61136e6124c0565b60036000878152602001908152602001600020610120604051908101604052908160008201548152602001600182018054600181600116156101000203166002900480601f0160208091040260200160405190810160405280929190818152602001828054600181600116156101000203166002900480156114315780601f1061140657610100808354040283529160200191611431565b820191906000526020600020905b81548152906001019060200180831161141457829003601f168201915b50505050508152602001600282018054600181600116156101000203166002900480601f0160208091040260200160405190810160405280929190818152602001828054600181600116156101000203166002900480156114d35780601f106114a8576101008083540402835291602001916114d3565b820191906000526020600020905b8154815290600101906020018083116114b657829003601f168201915b5050505050815260200160038201548152602001600482015481526020016005820160009054906101000a900473ffffffffffffffffffffffffffffffffffffffff1673ffffffffffffffffffffffffffffffffffffffff1673ffffffffffffffffffffffffffffffffffffffff1681526020016006820160009054906101000a900473ffffffffffffffffffffffffffffffffffffffff1673ffffffffffffffffffffffffffffffffffffffff1673ffffffffffffffffffffffffffffffffffffffff168152602001600782015481526020016008820160009054906101000a900460ff1615151515815250509050600081600001511180156115dd5750600254816000015111155b15156115e857600080fd5b3373ffffffffffffffffffffffffffffffffffffffff168160a0015173ffffffffffffffffffffffffffffffffffffffff1614151561162657600080fd5b8060a0015173ffffffffffffffffffffffffffffffffffffffff168160c0015173ffffffffffffffffffffffffffffffffffffffff1614151561166857600080fd5b848160200181905250838160400181905250828160600181815250508181608001818152505080600360008881526020019081526020016000206000820151816000015560208201518160010190805190602001906116c8929190612440565b5060408201518160020190805190602001906116e5929190612440565b50606082015181600301556080820151816004015560a08201518160050160006101000a81548173ffffffffffffffffffffffffffffffffffffffff021916908373ffffffffffffffffffffffffffffffffffffffff16021790555060c08201518160060160006101000a81548173ffffffffffffffffffffffffffffffffffffffff021916908373ffffffffffffffffffffffffffffffffffffffff16021790555060e082015181600701556101008201518160080160006101000a81548160ff0219169083151502179055509050507f4395962379538081681c437017fea0bacce34b2ace48a53f58302895bca20a8b600254868686863360006040518088815260200180602001806020018781526020018681526020018573ffffffffffffffffffffffffffffffffffffffff1673ffffffffffffffffffffffffffffffffffffffff16815260200184151515158152602001838103835289818151815260200191508051906020019080838360005b83811015611873578082015181840152602081019050611858565b50505050905090810190601f1680156118a05780820380516001836020036101000a031916815260200191505b50838103825288818151815260200191508051906020019080838360005b838110156118d95780820151818401526020810190506118be565b50505050905090810190601f1680156119065780820380516001836020036101000a031916815260200191505b50995050505050505050505060405180910390a1505050505050565b61192a6124c0565b60036000838152602001908152602001600020610120604051908101604052908160008201548152602001600182018054600181600116156101000203166002900480601f0160208091040260200160405190810160405280929190818152602001828054600181600116156101000203166002900480156119ed5780601f106119c2576101008083540402835291602001916119ed565b820191906000526020600020905b8154815290600101906020018083116119d057829003601f168201915b50505050508152602001600282018054600181600116156101000203166002900480601f016020809104026020016040519081016040528092919081815260200182805460018160011615610100020316600290048015611a8f5780601f10611a6457610100808354040283529160200191611a8f565b820191906000526020600020905b815481529060010190602001808311611a7257829003601f168201915b5050505050815260200160038201548152602001600482015481526020016005820160009054906101000a900473ffffffffffffffffffffffffffffffffffffffff1673ffffffffffffffffffffffffffffffffffffffff1673ffffffffffffffffffffffffffffffffffffffff1681526020016006820160009054906101000a900473ffffffffffffffffffffffffffffffffffffffff1673ffffffffffffffffffffffffffffffffffffffff1673ffffffffffffffffffffffffffffffffffffffff168152602001600782015481526020016008820160009054906101000a900460ff161515151581525050905060008160000151118015611b995750600254816000015111155b1515611ba457600080fd5b3373ffffffffffffffffffffffffffffffffffffffff168160a0015173ffffffffffffffffffffffffffffffffffffffff16141515611be257600080fd5b8060a0015173ffffffffffffffffffffffffffffffffffffffff168160c0015173ffffffffffffffffffffffffffffffffffffffff16141515611c2457600080fd5b6001816101000190151590811515815250508060036000848152602001908152602001600020600082015181600001556020820151816001019080519060200190611c70929190612440565b506040820151816002019080519060200190611c8d929190612440565b50606082015181600301556080820151816004015560a08201518160050160006101000a81548173ffffffffffffffffffffffffffffffffffffffff021916908373ffffffffffffffffffffffffffffffffffffffff16021790555060c08201518160060160006101000a81548173ffffffffffffffffffffffffffffffffffffffff021916908373ffffffffffffffffffffffffffffffffffffffff16021790555060e082015181600701556101008201518160080160006101000a81548160ff0219169083151502179055509050507ff9e6dea644dccaca9e43e3123143e9856ebd15cb6b1b72e5a12f0c93f0fc5a9e60025482602001518360a001518460c0015185610100015160405180868152602001806020018573ffffffffffffffffffffffffffffffffffffffff1673ffffffffffffffffffffffffffffffffffffffff1681526020018473ffffffffffffffffffffffffffffffffffffffff1673ffffffffffffffffffffffffffffffffffffffff16815260200183151515158152602001828103825286818151815260200191508051906020019080838360005b83811015611e4b578082015181840152602081019050611e30565b50505050905090810190601f168015611e785780820380516001836020036101000a031916815260200191505b50965050505050505060405180910390a15050565b611e956124c0565b60036000838152602001908152602001600020610120604051908101604052908160008201548152602001600182018054600181600116156101000203166002900480601f016020809104026020016040519081016040528092919081815260200182805460018160011615610100020316600290048015611f585780601f10611f2d57610100808354040283529160200191611f58565b820191906000526020600020905b815481529060010190602001808311611f3b57829003601f168201915b50505050508152602001600282018054600181600116156101000203166002900480601f016020809104026020016040519081016040528092919081815260200182805460018160011615610100020316600290048015611ffa5780601f10611fcf57610100808354040283529160200191611ffa565b820191906000526020600020905b815481529060010190602001808311611fdd57829003601f168201915b5050505050815260200160038201548152602001600482015481526020016005820160009054906101000a900473ffffffffffffffffffffffffffffffffffffffff1673ffffffffffffffffffffffffffffffffffffffff1673ffffffffffffffffffffffffffffffffffffffff1681526020016006820160009054906101000a900473ffffffffffffffffffffffffffffffffffffffff1673ffffffffffffffffffffffffffffffffffffffff1673ffffffffffffffffffffffffffffffffffffffff168152602001600782015481526020016008820160009054906101000a900460ff161515151581525050905060008160a0015190506000826000015111801561210d5750600254826000015111155b151561211857600080fd5b8160600151341015151561212b57600080fd5b81610100015115151561213d57600080fd5b3373ffffffffffffffffffffffffffffffffffffffff168173ffffffffffffffffffffffffffffffffffffffff161415151561217857600080fd5b338260c0019073ffffffffffffffffffffffffffffffffffffffff16908173ffffffffffffffffffffffffffffffffffffffff1681525050428260e00181815250506001826101000190151590811515815250508160036000858152602001908152602001600020600082015181600001556020820151816001019080519060200190612206929190612440565b506040820151816002019080519060200190612223929190612440565b50606082015181600301556080820151816004015560a08201518160050160006101000a81548173ffffffffffffffffffffffffffffffffffffffff021916908373ffffffffffffffffffffffffffffffffffffffff16021790555060c08201518160060160006101000a81548173ffffffffffffffffffffffffffffffffffffffff021916908373ffffffffffffffffffffffffffffffffffffffff16021790555060e082015181600701556101008201518160080160006101000a81548160ff0219169083151502179055509050507fec1cd7035a07e53aa480afdd728e41465b0105ea2f0885bda2dd9e1d54f773376002548360200151846060015185608001518660a00151338860e00151600160405180898152602001806020018881526020018781526020018673ffffffffffffffffffffffffffffffffffffffff1673ffffffffffffffffffffffffffffffffffffffff1681526020018573ffffffffffffffffffffffffffffffffffffffff1673ffffffffffffffffffffffffffffffffffffffff16815260200184815260200183151515158152602001828103825289818151815260200191508051906020019080838360005b838110156123fa5780820151818401526020810190506123df565b50505050905090810190601f1680156124275780820380516001836020036101000a031916815260200191505b50995050505050505050505060405180910390a1505050565b828054600181600116156101000203166002900490600052602060002090601f016020900481019282601f1061248157805160ff19168380011785556124af565b828001600101855582156124af579182015b828111156124ae578251825591602001919060010190612493565b5b5090506124bc919061253b565b5090565b610120604051908101604052806000815260200160608152602001606081526020016000815260200160008152602001600073ffffffffffffffffffffffffffffffffffffffff168152602001600073ffffffffffffffffffffffffffffffffffffffff168152602001600081526020016000151581525090565b61255d91905b80821115612559576000816000905550600101612541565b5090565b9056fea165627a7a723058209ada012d5fbd2fe968d4f37f490adb680bd114626eff954e7666edf755bfbe500029",
  "source": "pragma solidity >=0.4.21 <0.7.0;\n\ncontract Marketplace {\n  string public name;\n  address deployer;\n  uint public productCount = 0;\n  mapping(uint => Product) public products;\n  struct Product {\n    uint id;\n    string name;\n    string description;\n    uint rentalDeposit;\n    uint rentalFee;\n    address payable owner;\n    address payable custodian;\n    uint rentalStart;\n    bool rented;\n  }\n  event ProductCreated(\n    uint id,\n    string name,\n    string description,\n    uint rentalDeposit,\n    uint rentalFee,\n    address payable owner,\n    bool rented\n  );\n  event ProductRented(\n    uint id,\n    string name,\n    uint rentalDeposit,\n    uint rentalFee,\n    address owner,\n    address custodian,\n    uint rentalStart,\n    bool rented\n  );\n  event ProductReturned(\n    uint id,\n    string name,\n    uint rentalDeposit,\n    uint rentalCost,\n    address payable owner,\n    address payable borrower,\n    address custodian,\n    uint rentalDays,\n    bool rented\n  );\n  event ProductDeleted(\n    uint id,\n    string name,\n    address owner,\n    address custodian,\n    bool rented\n  );\n\n  event ProductEdited(\n    uint id,\n    string name,\n    string description,\n    uint rentalDeposit,\n    uint rentalFee,\n    address payable owner,\n    bool rented\n  );\n\n  constructor() public {\n    name = \"ETHRent Dapp\";\n    deployer = msg.sender;\n  }\n\n  function createProduct(string memory _name, string memory _description, uint _rentalDeposit, uint _rentalFee) public {\n    // Require a valid name\n    require(bytes(_name).length > 0);\n    // Require a valid description\n    require(bytes(_description).length > 0);\n    // Require a valid rental deposit\n    require(_rentalDeposit > 0);\n    // Require a valid rental fee\n    require(_rentalFee > 0);\n    // Increment product count\n    productCount ++;\n    // Create the product\n    products[productCount] = Product(productCount, _name, _description, _rentalDeposit, _rentalFee, msg.sender, msg.sender, 0, false);\n    // Trigger an event\n    emit ProductCreated(\n      productCount,\n      _name,\n      _description,\n      _rentalDeposit,\n      _rentalFee,\n      msg.sender,\n      false);\n  }\n\n  function rentProduct(uint _id) public payable {\n    // Fetch the product\n    Product memory _product = products[_id];\n    // Fetch the owner\n    address payable _owner = _product.owner;\n    // Make sure the product has a valid id\n    require(_product.id > 0 && _product.id <= productCount);\n    // Require that there is enough Ether in the transaction\n    require(msg.value >= _product.rentalDeposit);\n    // Require that the product has not been rented already\n    require(!_product.rented);\n    // Require that the borrower is not the owner\n    require(_owner != msg.sender);\n    // Transfer responsibility to the borrower\n    _product.custodian = msg.sender;\n    // Set time when rental starts\n    _product.rentalStart = now;\n    // uint endTime;\n    // endTime = _product.rentalStart + 2 days;\n    // Mark as rented\n    _product.rented = true;\n    // Update the product\n    products[_id] = _product;\n    // Trigger an event\n    emit ProductRented(\n      productCount,\n      _product.name,\n      _product.rentalDeposit,\n      _product.rentalFee,\n      _product.owner,\n      msg.sender,\n      _product.rentalStart,\n      true);\n  }\n\n  function returnProduct(uint _id, uint _rentalDays) public payable {\n    // Fetch the product\n    Product memory _product = products[_id];\n    // Fetch the owner\n    address payable _owner = _product.owner;\n    // Fetch the borrower\n    address payable _borrower = _product.custodian;\n    // Make sure the product has a valid id\n    require(_product.id > 0 && _product.id <= productCount);\n    // Require that the product is currently rented\n    require(_product.rented);\n    // Require that the borrower is not the owner\n    require(_owner != _borrower);\n    // Require that the account ending the rental is the owner\n    // require(_owner == msg.sender);\n    // Determine rental period, and associated rental cost\n    uint endTime;\n    endTime = now;\n    // uint rentalDays;\n    // rentalDays = ((endTime - _product.rentalStart) % 86400) + 2;\n    // rentalDays = 2; // Hard code rentalDays for testing\n    uint rentalCost;\n    rentalCost = _rentalDays * _product.rentalFee;\n    // Transfer responsibility back to owner\n    _product.custodian = _product.owner;\n    // Mark as rented\n    _product.rented = false;\n    // Update the product\n    products[_id] = _product;\n    // Pay the owner by sending them Ether\n    address(_owner).transfer(rentalCost);\n    // Return remaining deposit to the borrower\n    address(_borrower).transfer(_product.rentalDeposit - rentalCost);\n    // Trigger an event\n    emit ProductReturned(\n      productCount,\n      _product.name,\n      _product.rentalDeposit,\n      rentalCost,\n      _product.owner,\n      _borrower,\n      _product.custodian,\n      _rentalDays,\n      _product.rented);\n  }\n\n  function deleteProduct(uint _id) public {\n    // Fetch the product\n    Product memory _product = products[_id];\n    // Make sure the product has a valid id\n    require(_product.id > 0 && _product.id <= productCount);\n    // Make sure only the product owner can delete a product\n    require(_product.owner == msg.sender);\n    // Make sure the owner is currently the custodian of the product\n    require(_product.custodian == _product.owner);\n    // Mark as rented (i.e. unavailable to rent)\n    _product.rented = true;\n    // Update the product\n    products[_id] = _product;\n    // Trigger an event\n    emit ProductDeleted(\n      productCount,\n      _product.name,\n      _product.owner,\n      _product.custodian,\n      _product.rented);\n  }\n\n  function editProduct(uint _id, string memory _name, string memory _description, uint _rentalDeposit, uint _rentalFee) public {\n    // Fetch the product\n    Product memory _product = products[_id];\n    // Make sure the product has a valid id\n    require(_product.id > 0 && _product.id <= productCount);\n    // Make sure only the product owner can edit a product\n    require(_product.owner == msg.sender);\n    // Make sure the owner is currently the custodian of the product\n    require(_product.custodian == _product.owner);\n    // Edit the product\n    _product.name = _name;\n    _product.description = _description;\n    _product.rentalDeposit = _rentalDeposit;\n    _product.rentalFee = _rentalFee;\n    products[_id] = _product;\n    emit ProductEdited(\n      productCount,\n      _name,\n      _description,\n      _rentalDeposit,\n      _rentalFee,\n      msg.sender,\n      false);\n      }\n\n  function destroy() public {\n    // Make sure the function is being called by the contract deployer\n    require(msg.sender == deployer);\n    // Remove the contract from the blockchain, return any ether to the deployer\n    selfdestruct(msg.sender);\n  }\n\n}",
  "sourcePath": "/Users/zhabskyi/lighthouse/ETHRent/contracts/Marketplace.sol",
  "compiler": {
    "name": "solc",
    "version": "0.5.0+commit.1d4f565a.Emscripten.clang"
  },
  "schemaVersion": "3.0.2",
  "updatedAt": "2020-01-07T19:31:27.091Z",
  "devdoc": {
    "methods": {}
  },
  "userdoc": {
    "methods": {}
  }
}